:020000040800F2
:1000000030320024890300089B3E00085139000863
:10001000993E00084D0B0008196E00080000000012
:10002000000000000000000000000000574300082E
:10003000FD0B0008000000001740000859430008AD
:10004000A3030008A3030008A3030008A3030008F8
:10005000A3030008A3030008A3030008A3030008E8
:10006000A3030008A3030008A3030008A3030008D8
:10007000A3030008A3030008A3030008A3030008C8
:10008000A3030008A3030008A3030008A3030008B8
:10009000A3030008A3030008A3030008A3030008A8
:1000A000A3030008A3030008A3030008A303000898
:1000B000A3030008A3030008A3030008A303000888
:1000C000A3030008A3030008A3030008A303000878
:1000D000A3030008A3030008A3030008A303000868
:1000E000A3030008A303000800000000A303000806
:1000F000A3030008A3030008A3030008A303000848
:10010000A3030008A3030008A3030008A303000837
:10011000A3030008A3030008A3030008A303000827
:10012000A3030008A3030008A3030008A303000817
:10013000A3030008A3030008A3030008A303000807
:1001400000000000000000000000000000000000AF
:10015000A3030008A3030008A3030008A3030008E7
:10016000A3030008A3030008A3030008A3030008D7
:10017000A3030008A3030008A30300080000000075
:10018000A3030008A3030008A3030008A3030008B7
:10019000A3030008A3030008A3030008A3030008A7
:1001A000A3030008A3030008A3030008A303000897
:1001B000A3030008A3030008A3030008A303000887
:1001C000A3030008A3030008A3030008A303000877
:1001D000A30300089D3E0008A3030008A303000832
:1001E000A3030008A3030008A3030008A303000857
:1001F000A3030008A3030008A3030008A303000847
:10020000A3030008A3030008A3030008A303000836
:10021000A3030008A3030008A3030008A303000826
:10022000A3030008A3030008A303000800000000C4
:10023000A3030008A303000800000000A3030008B4
:10024000A3030008A3030008A3030008A3030008F6
:10025000A3030008A3030008A3030008A3030008E6
:10026000A3030008A3030008A3030008A3030008D6
:10027000A3030008A3030008A30300080000000074
:10028000A3030008A3030008A30300080000000064
:1002900000000000A303000800F002F800F065F879
:1002A0000AA090E8000C82448344AAF10107DA45D1
:1002B00001D100F05AF8AFF2090EBAE80F0013F0BE
:1002C000010F18BFFB1A43F00103184774700000B8
:1002D000947000000A444FF0000C10F8013B13F03A
:1002E000070408BF10F8014B1D1108BF10F8015B8F
:1002F000641E05D010F8016B641E01F8016BF9D182
:1003000013F0080F1EBF10F8014BAD1C0C1B09D1D8
:100310006D1E58BF01F801CBFAD505E014F8016B4A
:1003200001F8016B6D1EF9D59142D6D370470000DC
:100330000023002400250026103A28BF78C1FBD8EE
:10034000520728BF30C148BF0B607047642900F0D6
:100350005181002070471FB506F0E4FF9DE80300BF
:1003600000F0FCF91FBD10B510BD00F0CBFA11462E
:10037000FFF7F1FF06F086FD00F0E9FA03B4FFF79E
:10038000F2FF03BC00F01AFB094880470948004708
:10039000FEE7FEE7FEE7FEE7FEE7FEE7FEE7FEE735
:1003A000FEE7FEE704480549054A064B7047000092
:1003B0002144000899020008301E00243032002435
:1003C000302E0024302E002470B5064600F0AAF925
:1003D000056806F10B0020F00704B4429CBF002022
:1003E00070BD2B466A68BAB11068A04210D304F100
:1003F000080188423CBF5068586007D35168101903
:1004000041601168091B016058601460101D70BDC7
:1004100013465268002AE7D12146284600F08AF99F
:100420000028DED170BD70B50446051F00F07AF9D2
:100430000068002C14BF446870BD002C18BFAC428B
:100440003CBF20466468F8D301680A18AA4218BF66
:10045000456003D12A6805461144016028684119A6
:10046000A1421CBF6C6070BD61686960216808446E
:10047000286070BD53EA020C00F069802DE9F04B52
:100480004FF00006002B1FBFB3FA83F503FA05F403
:1004900024FA05F65E4012BF1643B2FA82F502FA5C
:1004A00005F4C5F120051EBF22FA05FC44EA0C0440
:1004B000203556EA044C4FEA144418BF641C4FF030
:1004C00000084FF00009904271EB030C39D300296A
:1004D00019BFB1FA81F701FA07F6B0FA80F700FA0E
:1004E00007F6C7F120071EBF20FA07FC46EA0C06F4
:1004F0002037B6FBF4FCA7EB0507103F07F01F0BF6
:10050000CBF120060CFA0BFB2CFA06F644BFB346DF
:100510000026202FA4BF5E464FF0000B5BEA060CBE
:1005200008BF4FF0010B19EB0B09ABFB027C48EB4A
:100530000608C01B06FB02CC0BFB03CC71EB0C01C5
:10054000C1E70B46024641464846BDE8F08B13B56D
:100550004FF000004FF00001AFF30080BDE81C40F9
:10056000704700000FB41CB5074B06AA7B446946D0
:100570000090059800F087F90020694600F096F990
:100580001CBC5DF814FB00003D0300002DE9F041A8
:100590000E460446002020622046E168884730B3BA
:1005A000252805D0D4E901219047206A401CF2E7B4
:1005B000E168204600278847050018D0A5F14100D2
:1005C000192802D820354FF40067324629462046C4
:1005D0002760FFF7BBFE40B1012804D0F61D26F0CE
:1005E00007060836D8E7361DD6E72846DAE7206A38
:1005F000BDE8F0812DE9F041064600241068752918
:10060000314616A510D0AFF30080002802DA404230
:1006100013A507E031688A0701D512A502E0490752
:1006200004D511A5012401E0AFF3008000210A22C6
:1006300006F1240709E0B0FBF2FCB0FBF2F302FB89
:100640001C00303078541846491C0028F3D123464A
:100650002A463046BDE8F04100F0B6B80000000080
:100660002D0000002B0000002000000010B5203AF3
:10067000C0F00B80B1E81850203AA0E81850B1E85B
:100680001850A0E81850BFF4F5AF5FEA027C24BF11
:10069000B1E81850A0E8185044BF18C918C0BDE808
:1006A00010405FEA827C24BF51F8043B40F8043BD1
:1006B00008BF7047D20728BF31F8023B48BF11F886
:1006C000012B28BF20F8023B48BF00F8012B7047E0
:1006D0004FF0000200B5134694469646203922BFDB
:1006E000A0E80C50A0E80C50B1F12001BFF4F7AF26
:1006F000090728BFA0E80C5048BF0CC05DF804EB08
:10070000890028BF40F8042B08BF704748BF20F875
:10071000022B11F0804F18BF00F8012B7047704773
:100720007047704700487047D41D002470477047D9
:100730007047704738B504460A4600206946AFF353
:100740000080002808BF38BD02460099204600F00E
:10075000B7F8012038BD012000F0CCB8F8B5AFF3F0
:100760000080054600200C46102000BF0646A81950
:10077000A0420DD9324669460020AFF30080070041
:1007800008BF00F0B7F80098A04218BF0546C4198A
:10079000FFF7C8FF05600746F01D20F00700461967
:1007A000284600F00AF8B44208BFF8BDA21B314643
:1007B0003868BDE8F84000F083B800210160C0E966
:1007C00001107047102070472DE9F0470D469946FB
:1007D0009246044600F124080168880604D5E069C1
:1007E00021F01001216000E00120A84201DD471B3B
:1007F00000E00027A1697A1902EB0900081AA0613C
:100800002078C00602D42046AFF30080002608E01E
:10081000D4E901211AF806009047206A401C761C92
:1008200020624E45F4DB2078C0060AD52046AFF39F
:10083000008006E0D4E9012130209047206A401C66
:100840002062381EA7F10107F4DC07E0D4E901219A
:1008500018F805009047206A401C2062281EA5F168
:100860000105F3DC2046AFF300802078000602D5B6
:100870000220BDE8F0870120FBE7000001694A1C67
:1008800002610878704700B58FB0CDE901310021D1
:10089000059105497944CDE9031011466846FFF7F3
:1008A00075FE0FB000BD0000E5FFFFFF0A6802F80B
:1008B000010B0A607047000000487047CC1D0024FF
:1008C000034640688C46002818BF88423CBF034658
:1008D0004068F8D318681844884207D00CF1030028
:1008E00020F00700001D411A521A0146081D0A6037
:1008F000FFF799BD10B500F039F8BDE8104000F0E1
:100900002FB870477546FFF7D7FFAE46050069461A
:10091000534620F00700854618B020B5FFF742FD8A
:10092000BDE820404FF000064FF000074FF00008F0
:100930004FF0000B21F00701AC46ACE8C009ACE871
:10094000C009ACE8C009ACE8C0098D46704710B5D5
:100950000446AFF300802046BDE81040FFF70EBD0F
:10096000002801D000F02AB87047000010B5012817
:1009700005D0002103A000F027F8012010BD09A137
:10098000F8E7000053494752544D454D3A204F7502
:1009900074206F662068656170206D656D6F727977
:1009A000000000003A2048656170206D656D6F722F
:1009B0007920636F72727570746564000149182044
:1009C000ABBEFEE72600020070B505460C460A20C5
:1009D00000E06D1C00F011F835B128780028F8D13E
:1009E00002E0641C00F009F814B120780028F8D166
:1009F000BDE870400A20AFF3008008B569468DF865
:100A000000000320ABBE08BD2DE9F04100240646DE
:100A10004FF4105741F602482DED028B9FED0B8AE3
:100A2000355D3946284606F04FFC4146284606F01B
:100A30004BFCB0EE480A284606F020FC641CE4B2E9
:100A40000A2CEDD3BDEC028BBDE8F08100409C4543
:100A5000402106F051BC00002DE9F0470022054678
:100A60001D484FF400412DED028B00F0F3F91B48B7
:100A70000022012100F0EEF9DFF864900024194F04
:100A80004FF400669FED188ADFED188A4FF408587E
:100A900048460022042100F0DDF9012231463846A3
:100AA00000F0D8F9285D414606F026FC285D0021BB
:100AB000F0EE480AB0EE680A00F01AF8002231465B
:100AC000384600F0C7F9641CE4B20A2CE0D3BDEC50
:100AD000028BBDE8F08700000010025800000258A9
:100AE000000C0258000802580000000000401C469C
:100AF0002DE9F0410122144D0E460746D402284646
:100B00002DED028BF0EE608AB0EE408A214600F0B7
:100B1000A1F94FF40851384606F0EEFBB0EE480A52
:100B20003146384606F008FBB0EE680A31463846D2
:100B300006F042FBBDEC028B214628460022BDE8B0
:100B4000F04100F087B9000000080258FEE70020DD
:100B50007047002070470000074810B506F0AAFA59
:100B600006490022064804F0EDFE0649044804F058
:100B7000E3FE002010BD0000441D002444150024A5
:100B800078040024440D00240A460146044810B5A8
:100B900006F077FA012801D0012010BD002010BD19
:100BA000441D002470B50D4604460146064804F075
:100BB000C3FE064821462A6806F0AEFA024804F051
:100BC0009DFE002070BD000078040024441D002418
:100BD000094A10B5D2F8B822D2F814220AB101207D
:100BE00010BD0A460146044804F0ACFEBDE81040C2
:100BF000014804F006BF00007804002470477047E5
:100C000070B5044600F032F90546601C02D0044875
:100C10000078044400F02AF9401BA042FAD370BDCA
:100C2000640000242DE9FC4F01257E4C00234FF089
:100C3000030A4FF0B04E4FF00F0BEBE005FA03F64E
:100C400037403A0077D04F68012F05D0022F03D0EC
:100C5000112F01D0122F1AD187684FEA4308D1F81B
:100C60000CC00AFA08F927EA09070CFA08FC4CEA52
:100C7000070CC0F808C0476891F804C0B743CCF32C
:100C8000001C0CFA03FC4CEA070CC0F804C0C66850
:100C90004FEA430CD1F80880E1460AFA0CF7BE434C
:100CA000019708FA09F848EA0608C0F80C804E686F
:100CB000022E01D0122E12D1DE084FEA437C00EB47
:100CC000860600960F69366A4FEADC6C0BFA0CF860
:100CD00007FA0CF726EA08063743009E37620E79BA
:100CE0000768DDF804C006F0030606FA09F627EAED
:100CF0000C073E4306604E68F6001CD54A4E376826
:100D000047F00207376036689F0706F00206009634
:100D100023F0030606F1B046B1463F0FD6F808644B
:100D2000DFF808810BFA07FC404526EA0C0603D1E0
:100D30004FF0000C41E06CE0DFF8F4C0604502D1F8
:100D40004FF0010C39E0DFF8ECC0604502D14FF004
:100D5000020C32E0DFF8E0C0604502D14FF0030C36
:100D60002BE0DFF8D8C0604502D14FF0040C24E03E
:100D7000DFF8CCC0604502D14FF0050C1DE0DFF874
:100D8000C4C0604502D14FF0060C16E0DFF8B8C0D1
:100D9000604502D14FF0070C0FE0DFF8B0C06045AE
:100DA00002D14FF0080C08E0DFF8A4C0604502D182
:100DB0004FF0090C01E04FF00A0C0CFA07FC4CEA6A
:100DC000060CC9F808C426684F6826EA0206FF0325
:100DD00000D51643266066684F6826EA0206BF0300
:100DE00000D516436660D1F804C07646DEF8007080
:100DF0005FEACC2C27EA020700D517433760D1F809
:100E000004C077685FEA8C2C27EA020700D51743F5
:100E100077605B1C0A681746DA407FF40FAFBDE8C5
:100E2000FC8F000080000058F44402580000025873
:100E30000004025800080258000C02580010025822
:100E40000014025800180258001C025800200258D2
:100E5000002402580AB1816170470904FBE70000D1
:100E600001480068000C70470010005C0148806871
:100E70007047000064000024024881680278114431
:100E80008160704764000024032010B500F086F8EC
:100E900001F0B6FC0F4A104914681368C4F303222A
:100EA00003F00F038A5CC95C02F01F0201F01F010E
:100EB000D0400A4A20FA01F1116009490860002077
:100EC00000F010F808B1012010BD00F02BF8002050
:100ED00010BD0000184402582E730008740000244E
:100EE0007000002470B50D4D04462878A0B14FF471
:100EF0007A71B1FBF0F00A490968B1FBF0F002F039
:100F000020FA48B9102C07D200222146501E00F0CA
:100F100025F800206C6070BD012070BD64000024C5
:100F200070000024054808B5016841F00201016025
:100F3000006800F00200009008BD0000F444025870
:100F4000002809DB410900F01F028900012001F19E
:100F5000E0219040C1F80001704700000E4BF0B452
:100F60001B680D46C3F30223C3F10706042E00D904
:100F70000426191D072901D2002300E0DB1E0124ED
:100F800004FA06F19C40491E2940641E9940144011
:100F90002143F0BC05F041BF0CED00E0064900F034
:100FA000070210B54FF6FF040868044B204040EAE2
:100FB00002201843086010BD0CED00E00000FA05A7
:100FC00001680123C0F8FC33002280F8F42388690B
:100FD000044A40F000608861486D10434865002075
:100FE0007047000003000010704700684162002055
:100FF0007047F0B503685D6A39B19F6A4C1E0020E6
:101000004FF4827605EB17450BE045EA0240986203
:1010100010E0471C06EB800053F800C0F8B205EB67
:101020001C45A042F5D34FF4807000EB810045EAE7
:1010300002421A500020F0BDD0F8040404F034BF7E
:10104000C1EBC10200EB8202D0F80404926C04F000
:1010500089BEC1EBC10200EB8202D0F80404D2F8D1
:10106000082204F0E0BED0F8040404F01FBF01F031
:101070000F020B0670B5C2EBC20104464FF001002F
:101080004FF0000504EB810103D581F83D003C31B0
:1010900003E081F8FD5101F5FE710A7094F8BC235C
:1010A000012A08D084F8BC03206805F073FA0020F8
:1010B00084F8BC5370BD022070BD70B54268044610
:1010C00001F00F00904201D9012070BD01F00F0224
:1010D0004FF000050B06C2EBC2014FF0010204EB1A
:1010E000810103D581F83D203C3103E081F8FD51B9
:1010F00001F5FE718D70087094F8BC03012808D0CA
:1011000084F8BC23206805F019FC002084F8BC5347
:1011100070BD022070BD01F00F01C1EBC10100EBF9
:101120008100D0F8140270472DE9F04101F00F065C
:1011300004460D064FF00100C6EBC6014FF0000556
:1011400004EB810103D581F83D003C3103E081F8D7
:10115000FD5101F5FE714F788A60CB700E7007B1BA
:10116000CE80022B00D10D7194F8BC23012A09D046
:1011700084F8BC03206805F067F9284684F8BC535E
:10118000BDE8F0810220FBE770B501F00F050C46C9
:101190000026C5EBC50100EB8101C1F80822C1E9B9
:1011A000843681F8FD6181F8FC5101F5FE71036917
:1011B000012B00D10A612207027C006803D005F0F0
:1011C00015FC002070BD05F0FFFAFAE770B50D467A
:1011D0004168044605F00F00884201D9012070BD26
:1011E00029064FF000064FF0010207D5C0EBC00101
:1011F00004EB810181F83D203C3107E0C5EBC501DE
:1012000004EB810181F8FD6101F5FE718A700870BF
:1012100094F8BC03012807D084F8BC23206805F0AB
:10122000B9FB280702D007E0022070BD217C04F53D
:101230007172206805F056FB002084F8BC6370BD15
:101240002DE9F04101F00F050C460026C5EBC50164
:10125000012700EB81018A64C1E9143681F83D70F1
:1012600001F83C5F0369012B00D10A612207027C6F
:10127000006804D005F0BAFB0020BDE8F08105F05D
:10128000A3FAF9E72DE9FC5F05680446284605F056
:10129000D6FC00287ED1206805F0FDFC002879D01E
:1012A000206805F0F8FC800704D52068416901F04A
:1012B00002014161206805F0EEFCC10604F5717081
:1012C000009034D52068816921F0100181612F6A76
:1012D00007F00F01C7F34340C1EBC101022804EB43
:1012E000810606F5FE7602D0062811D01AE047F6F0
:1012F000F070074216D0C7F30A12F1681746284665
:1013000005F0CDFCF168B0693944F160384408E07B
:1013100000990822284605F0C2FCB069C7F30A11FB
:101320000844B0612068816941F010018161206842
:1013300005F0B1FC00034FF001094FF0080B5BD53D
:101340002068002605F086FCDFF8A8A3074651E0D8
:10135000F8074DD02068F1B205F095FC8046C00733
:1013600007D005EB4611C1F8089B3146204602F034
:101370009BFD5FEA087022D505EB4611C1F808BB5A
:101380002068016C00EB461001915145D0F8081B14
:1013900007D900E0ABE1090403D54FF40041C0F8E0
:1013A000081B204600F0A2FA0198504507D9206991
:1013B000012804D120680121009A05F093FA5FEA20
:1013C000C86004D505EB46111020C1F8080B5FEA90
:1013D000886004D505EB46102021C0F8081B5FEAA1
:1013E000884005D505EB46114FF40050C1F8080BB5
:1013F0007F08761C002FABD1206805F04CFC400321
:101400004FF0000A5CD5206805F01DFC0026074659
:1014100054E0F80750D02068F1B205F022FC804675
:10142000C00723D0D5F8342806F00F0C05EB46137F
:1014300009FA0CF08243C5F83428C3F808992069EA
:1014400001280FD1C6EBC60004EB8000D0E91112D1
:101450001144816436B9206D20B920680121009AB9
:1014600005F040FA2046F1B2FFF7EAFD5FEA0870A6
:1014700003D505EB4611C1F808B95FEAC86004D589
:1014800005EB46111020C1F808095FEA486004D551
:1014900005EB46114020C1F808095FEA887004D5C1
:1014A00005EB46110220C1F808095FEA086003D580
:1014B0003146204602F05EFD7F08761C002FA8D141
:1014C000206805F0E8FB002811DAD5F8040820F0C0
:1014D0000100C5F8040894F8F403012839D0204627
:1014E00000F0E8F92068416901F00041416120689D
:1014F00005F0D1FB00050BD5D5F80808C00702D0D0
:10150000204600F01BFA2068416901F40061416146
:10151000206805F0C0FB00010AD52068416901F090
:101520000061416194F8F403D0B1204600F006FA5E
:10153000206805F0B0FBC00476D5D5F8040820F08B
:101540000100C5F804082068102105F059FB0021AE
:1015500035E00021204684F8F4A3FFF745FDC1E7FC
:1015600084F8F4932068406D0121C0F38300C4F82F
:10157000F8032046FFF738FDDAE700BF05EB41101E
:101580004FF67F32C0F80829D0F8003923F4001351
:10159000C0F80039D0F8003943F00063C0F80039D2
:1015A000C0F8082BD0F8002B22F40012C0F8002B52
:1015B000D0F8002B42F00062C0F8002B491C606894
:1015C0008842DBD8D5F81C0840F00110C5F81C088B
:1015D000206B60B1D5F8840840F00B00C5F8840892
:1015E000D5F8440840F00B00C5F844080CE0D5F8E5
:1015F000140842F22B010843C5F81408D5F8100866
:1016000040F00B00C5F81008D5F8000820F4FE6083
:10161000C5F80008217C2068009A05F063F920686D
:10162000416901F480514161206805F034FB800478
:1016300017D5206804F048FF206805F0F3FAE06051
:1016400001F098F80146207B2368C2B2184605F0E5
:101650005DFB204600F018F92068416901F4005153
:101660004161206805F017FB000707D5204600F010
:1016700025F92068416901F008014161206805F001
:101680000AFBC00208D50021204600F035F820688A
:10169000416901F480114161206805F0FCFA800283
:1016A00008D50021204600F02BF82068416901F49C
:1016B00000114161206805F0EEFA400007D5204690
:1016C000FFF7BAFC2068416901F080414161206860
:1016D00005F0E1FA40070AD520684568680702D599
:1016E0002046FFF7C0FC2168486828434860BDE8F1
:1016F000FC9F00000A30544FD0F8040404F028BCCA
:10170000D0F8040404F026BC2DE9F04104008AB0AE
:1017100005D094F8BD030025266820B108E001201B
:101720000AB0BDE8F081204684F8BC5300F066F8AA
:10173000032084F8BD03F06BC00500D42561206848
:1017400005F03CF804F11001684628228846FEF7AF
:101750008DFF94E80F0004F0C5FE0227D8BB206877
:10176000002105F0AAFA0020012610E0C0EBC0011C
:10177000421C04EB810181F83D6081F83F504D64CB
:101780008D640D6581F83C00A1F84200D0B261681B
:101790008142EBD8002011E0C0EBC001421C04EBF9
:1017A000810181F8FD5181F8FF51C1F80452C1F85F
:1017B0000852C1F8105281F8FC01D0B26168814230
:1017C000EAD8282241466846FEF750FF94E80F0009
:1017D00004F038FF10B184F8BD73A0E7606A84F8A4
:1017E000385084F8BD63012802D12046FFF7E8FB9A
:1017F000206804F01BFF002092E7000030B587B09E
:10180000044614216846FEF763FF1C49206888429D
:1018100031D11B48016841F00101016000680024DA
:101820000221184D00F0010005904FF4C8500A2223
:101830008DE81300CDE9034269462846FFF7F2F927
:101840004FF400706946CDE9000428460294FFF782
:10185000E9F90B480838016841F00061016000684F
:101860000022114600F0006005906520FFF776FB2E
:101870006520FFF765FB07B030BD000000000840A1
:10188000E04402580000025870B50446C0680125C3
:1018900070B1022801D0FFF7B2F9D4F80404294648
:1018A00004F0ADFBD4F80404BDE8704004F069BB5B
:1018B0000025F2E7D0F8040404F08BBBD0F8040450
:1018C00004F091BB10B5044690F8BC0301280BD07E
:1018D000012084F8381084F8BC03206805F004FA6D
:1018E000002084F8BC0310BD022010BDD0F80424F1
:1018F00000F57171104604F08EBB10B590F8BC1362
:1019000004460068012906D0A26A012184F8BC13AC
:10191000012A02D008E0022010BDA169012903D0EC
:10192000816B41F480318163206804F073FE20688C
:1019300005F050F9002084F8BC0310BD10B5044632
:10194000D0F8040404F0A4FB2068D0F8001E41F095
:101950000101C0F8001E206A002804D00248016876
:1019600041F00601016010BD10ED00E0134970B5B3
:101970000A68D243520705D5096801F00701814280
:1019800013D118E00A6822F0070202430A60FFF749
:101990006DFA0A4D4FF47A760446083D07E000BF21
:1019A000FFF764FA001BB04201D9012070BD28681E
:1019B000C0438004F4D4002070BD00000C480258DD
:1019C0000248016841F08071016070470C4802587C
:1019D00010B500F0CFFE05490968054AC1F30211B0
:1019E000515C01F01F01C84010BD000020440258A6
:1019F0002E730008494930B5484C0B1D0A68143451
:101A000009681D68246802F00303C5F30012C1F3DE
:101A10000531C4F3CC04002914FB02F200EE102AB5
:101A2000F8EE400A75D03F4A9FED3D1AB7EE000A26
:101A30006BB1DFED3D1A012B01D0022B64D002EE19
:101A4000101A1168F8EE422A81EEA22A21E0334CE6
:101A5000283C23689B0612D5344B246801EE901A6B
:101A60001168C4F3C104F8EE612AE34001EE903A34
:101A7000C1F30801F8EE611A81EEA22A0BE001EE33
:101A8000901ADFED2B2A00BFF8EE611A116882EE82
:101A9000A12AC1F3080101EE901A1168F8EE611A4B
:101AA00040EE811A71EE800A62EE200AC1F34621EF
:101AB00001EE101AB8EE411A31EE001AC0EE811A8A
:101AC000BCEEE11A80ED001A1168C1F3064101EE87
:101AD000101AB8EE411A31EE001AC0EE811ABCEEAF
:101AE000E11A80ED011A1168C1F3066101EE101AC6
:101AF000B8EE411A31EE000A80EE801ABCEEC10A3F
:101B000080ED020A30BD04E001EE901ADFED092AF3
:101B1000BAE70021016041608160F3E72844025880
:101B200000000039384402580024744A0090D00361
:101B30000024744C0024F44A494930B5484C0B1D2C
:101B40000A681C3409681D68246802F00303C5F3A1
:101B50000022C1F30551C4F3CC04002914FB02F2A6
:101B600000EE102AF8EE400A75D03F4A9FED3D1A6C
:101B7000B7EE000A6BB1DFED3D1A012B01D0022B4D
:101B800064D002EE101A1168F8EE422A81EEA22A01
:101B900021E0334C283C23689B0612D5344B246843
:101BA00001EE901A1168C4F3C104F8EE612AE34013
:101BB00001EE903AC1F30801F8EE611A81EEA22A13
:101BC0000BE001EE901ADFED2B2A00BFF8EE611A50
:101BD000116882EEA12AC1F3080101EE901A116882
:101BE000F8EE611A40EE811A71EE800A62EE200A68
:101BF000C1F3462101EE101AB8EE411A31EE001A77
:101C0000C0EE811ABCEEE11A80ED001A1168C1F332
:101C1000064101EE101AB8EE411A31EE001AC0EE7C
:101C2000811ABCEEE11A80ED011A1168C1F3066158
:101C300001EE101AB8EE411A31EE000A80EE801A59
:101C4000BCEEC10A80ED020A30BD04E001EE901A3C
:101C5000DFED092ABAE70021016041608160F3E706
:101C60002844025800000039404402580024744AB5
:101C70000090D0030024744C0024F44A2DE9FC5F4A
:101C8000044650F8241B002500902E460801FE4F04
:101C9000DFF8F8831DD5606E50B1B0F5801F0CD011
:101CA000B0F5001F0ED0B0F5401F1DD001250FE08C
:101CB000386840F40030386016E00221201D02F040
:101CC000ABF903E00098022102F036FA05000BD0D0
:101CD0002E462088C00523D5606D05281ED2DFE87A
:101CE00000F00C11161B1B00626ED8F8001021F4D6
:101CF00040111143C8F80010EBE7386840F4003099
:101D0000386009E00021201D02F086F903E0009808
:101D1000002102F011FA05466DB100E001252E46C2
:101D20002088800528D5A06D80281ED00CDC90B1BD
:101D300040280ED114E0626DD8F8001021F00701A0
:101D40001143C8F80010EBE7C02813D0B0F5807F2E
:101D500010D001250FE0386840F40030386009E009
:101D60000021201D02F058F903E00098002102F044
:101D7000E3F9054695B12E462088DFF8109340051B
:101D800009F108092CD5D4F8A400B0F5800F20D0B3
:101D90000DDCA0B1B0F5001F0FD115E0A26DD8F891
:101DA000001021F4E0711143C8F80010E4E7B0F529
:101DB000C00F13D0B0F5000F10D001250FE0386828
:101DC00040F40030386009E00021201D02F024F9C1
:101DD00003E00098002102F0AFF9054675B12E46E8
:101DE000208800052DD5D4F8A800B0F1007F21D0BF
:101DF0000EDCA8B1B0F1807F10D116E0D4F8A42099
:101E0000D9F8001021F460011143C9F80010E7E788
:101E1000B0F1407F13D0B0F1806F10D001250FE0FA
:101E2000386840F40030386009E00021201D02F0DD
:101E3000F3F803E00098002102F07EF905468DB129
:101E40002E462068DFF844B28001ABF1040B1FD5A9
:101E5000A06CD8B110280FD0202812D0302815D06F
:101E6000012514E0D4F8A820D9F8001021F0E06191
:101E70001143C9F80010E4E7386840F400303860D6
:101E800004E00221201D02F0C7F805466DB12E4680
:101E90002088C0042BD5E06DB0F5005F20D00DDCAC
:101EA000A0B1B0F5805F0FD115E0A26CDBF8001097
:101EB00021F030011143CBF80010E9E7B0F5405FA5
:101EC00013D0B0F5804F10D001250FE0386840F4F2
:101ED0000030386009E00021201D02F09DF803E089
:101EE0000098002102F028F9054685B12E46208889
:101EF000800429D5206EB0F5403F23D010DC08B314
:101F0000B0F5803F14D0B0F5003F0FD115E0E26D81
:101F1000D8F8001021F4E0411143C8F80010E6E7BA
:101F2000B0F5802F0ED0B0F5A02F0BD001250AE020
:101F30000121201D02F070F803E00098012102F059
:101F4000FBF805468DB12E46208840042AD5D4F8EA
:101F5000AC00B0F1405F23D010DC08B3B0F1805F7B
:101F600014D0B0F1005F0FD115E0226ED8F8001048
:101F700021F4E0211143C8F80010E5E7B0F1804FEB
:101F80000ED0B0F1A04F0BD001250AE00121201D99
:101F900002F042F803E00098012102F0CDF8054676
:101FA0006DB12E46208800041FD5E06ED8B1B0F187
:101FB000805F0ED0B0F1005F10D0012514E0D4F89E
:101FC000AC20D9F8001021F0E0411143C9F800100D
:101FD000E8E7386840F40030386004E00121201D53
:101FE00002F01AF805466DB12E462068C0011ED5D4
:101FF000606CD0B101280ED0022811D0032814D073
:10200000012513E0E26ED8F8001021F04051114391
:10201000C8F80010E9E7386840F40030386004E0A0
:102020000221201D01F0F8FF054665B12E4620680B
:10203000400257D51648016841F480710160FEF7EF
:1020400015FF82460EE0626CDBF8001021F0030100
:102050001143CBF80010EAE7FEF708FFA0EB0A00F7
:1020600064283DD80A480068C005F5D57DBBDFF877
:102070001CA0B4F8B0100AF1200ADAF8000001F44C
:10208000407100F4407005E02C440258504402585E
:1020900000480258884211D0DAF80010DAF800201F
:1020A00021F4407142F48032CAF80020DAF80020AE
:1020B00022F48032CAF80020CAF80010D4F8B00028
:1020C000B0F5807F21D1FEF7D1FE019019E008E044
:1020D000FEF7CCFE0199411A41F28830814210D9B5
:1020E00003252E462078DFF80CA4C0073DD0A06F52
:1020F000182838D026DC80B3082829D0102825D10C
:102100002CE0DAF800008007E2D5D4F8B010C1F373
:1021100001200328F8480DD0016821F47C510160AA
:10212000B4F8B020DAF80010C2F30B021143CAF879
:102130000010D7E7F14A036802EA111223F47C5138
:102140001143ECE720280ED028280CD001250BE005
:102150000121201D01F060FF04E004E0009801214E
:1021600001F0EAFF05465DB12E46207880071ED5B6
:10217000606F062819D2DFE800F0160C111616164B
:10218000A26FDAF8001021F038011143CAF80010EC
:10219000EBE70121201D01F03FFF03E00098012142
:1021A00001F0CAFF054675B100E001252E462078F2
:1021B00040071FD5D4F89000062819D2DFE800F0B8
:1021C000160C11161616626FDAF8001021F00701CE
:1021D0001143CAF80010EAE70121201D01F01CFF9D
:1021E00003E00098012101F0A7FF05469DB100E042
:1021F00001252E46207880062BD5D4F88C00B0F12E
:10220000405F24D011DC10B3B0F1805F15D0B0F185
:10221000005F10D116E0D4F89020D9F8001021F01A
:1022200007011143C9F80010E4E7B0F1804F0ED068
:10223000B0F1A04F0BD001250AE00021201D01F0D4
:10224000EBFE03E00098022101F076FF05468DB118
:102250002E46207840062BD5D4F89800B0F5406F74
:1022600024D011DC10B3B0F5806F15D0B0F5006F3D
:1022700010D116E0D4F88C20DAF8001021F0E041FB
:102280001143CAF80010E4E7B0F5805F0ED0B0F556
:10229000A05F0BD001250AE00021201D01F0BCFE4B
:1022A00003E00098022101F047FF05468DB12E465C
:1022B000207800062BD5D4F89C00B0F5C04F24D070
:1022C00011DC10B3B0F5005F15D0B0F5804F10D120
:1022D00016E0D4F89820D9F8001021F4E051114309
:1022E000C9F80010E4E7B0F5004F0ED0B0F5204F6C
:1022F0000BD001250AE00021201D01F08DFE03E036
:102300000098022101F018FF05464DB12E462078B5
:1023100000071ED5D4F88000B0F5805F0AD00FE02A
:10232000D4F89C20D9F8001021F460411143C9F879
:102330000010ECE70098022101F0FEFE00B101263A
:10234000D4F88020DAF8001021F440511143CAF883
:1023500000102078C00613D5D4F89400B0F5807F23
:1023600005D10098022101F0E7FE00B10126D4F862
:102370009420D9F8001021F440711143C9F80010DD
:102380002068000316D5D4F8A00038B1B0F5803F1E
:1023900009D0B0F5003F0BD001250AE00021201D37
:1023A00001F03AFE03E00098022101F0C5FE054667
:1023B00085B12E462068400322D5D4F88400B0F5BC
:1023C000801F11D0B0F5001F13D0B0F5401F15D0FD
:1023D000012514E0D4F8A020D9F8001021F44031F0
:1023E0001143C9F80010E5E7386840F40030386060
:1023F00004E00098012101F09FFE054655B12E46EC
:102400002068C0031CD5E06C70B1B0F5803F10D0DF
:10241000012514E0D4F88420DAF8001021F44011EA
:102420001143CAF80010EBE7386840F40030386018
:1024300004E00221201D01F0EFFD0546CDB12E463E
:102440002068800005D50098022101F075FE00B1DA
:102450000126206880031BD5E06FB8B1B0F5807FFE
:1024600010D0B0F5007F11D0B0F5407F0ED001251F
:102470000DE0E26CDBF8001021F480311143CBF861
:102480000010DDE7386840F400303860C5B32E46F0
:102490002068C00207D5226FD8F8001021F0004153
:1024A0001143C8F800102068800207D5A26ED8F842
:1024B000001021F080711143C8F80010206840001E
:1024C00009D50D48016821F4004101600168D4F884
:1024D000B820114301602068002807DA226DDBF87C
:1024E000001021F040511143CBF8001096B10120AB
:1024F000BDE8FC9F5444025810440258CFFFFF002F
:10250000FFE7E26FDAF8001021F440711143CAF8D6
:102510000010BDE70020EBE72DE9F05F04000F4657
:102520007ED0DFF83882D8F8000000F00F00B84203
:102530000CD2D8F8001021F00F013943C8F8001070
:10254000D8F8000000F00F00B84269D12078844D1F
:1025500040070AD52069296801F07001884204D932
:10256000296821F070010143296020787C4E361DD6
:1025700000070AD56069316801F07001884204D90A
:10258000316821F07001014331602078C0060AD51E
:10259000A069316801F4E061884204D9316821F40E
:1025A000E061014331602078DFF8B4B180060BF1BF
:1025B000080B0CD5E1695846DBF8002002F07002E8
:1025C000914204D9026822F070020A430260207826
:1025D00080070AD5E068296801F00F01884204D914
:1025E000296821F00F01014329602078C0073ED0FF
:1025F0005B49A2682868183920F47060104328608D
:102600006068022818D0032819D00968012819D059
:10261000490700294ADADFF848A1AAF1080A00E0D0
:1026200044E0DAF8002022F007020243CAF8002052
:10263000FEF71CFC814612E009688903E9E7096896
:102640008901E6E7C905E4E7FEF710FCA0EB090104
:1026500041F28830814202D90320BDE8F09F6168D1
:10266000DAF8000000F03800B0EBC10FECD12078B0
:1026700080070AD5E068296801F00F01884204D27A
:10268000296821F00F0101432960D8F80010404665
:1026900001F00F01B9420BD9016821F00F01394354
:1026A0000160006800F00F00B84201D00120D4E7BB
:1026B000207840070AD52069296801F07001884216
:1026C00004D2296821F070010143296020780007B5
:1026D0000AD56069316801F07001884204D231681E
:1026E00021F07001014331602078C0060AD5A0694D
:1026F000316801F4E061884204D2316821F4E0617C
:1027000001433160207880060CD5E1695846DBF83A
:10271000002002F07002914204D2026822F070029E
:102720000A43026000F06CF80E492A682B68C2F375
:10273000032203F00F038A5CC95C02F01F0201F060
:102740001F01D040084A20FA01F1116007490860D2
:1027500007480068BDE8F05FFEF7C4BB00200052E8
:10276000184402582E7300087400002470000024DE
:102770006800002430B500F043F80B4A0B490C4BBD
:1027800015681468C5F3032204F00F048A5C095D20
:1027900002F01F0201F01F01D040064A20FA01F1A9
:1027A00019601060084630BD184402582E730008A6
:1027B000740000247000002400B5FFF7DBFF05491A
:1027C0000968054AC1F30211515C01F01F01C840BC
:1027D00000BD00001C4402582E73000800B5FFF72E
:1027E000C9FF05490968054AC1F30221515C01F09E
:1027F0001F01C84000BD00001C4402582E73000891
:10280000454970B545480968434B103B11F0380203
:1028100008D00111082A03D0102A0BD0182A0BD097
:10282000084670BD19688906FBD51968C1F3C10156
:10283000C84070BD3A4870BD3749374D18310C1D3E
:1028400024350A68096826682D6802F0030406F03A
:102850000102C1F30511C5F3CC0515FB02F200EE30
:10286000102AB8EE400AE9B32F4ADFED2E0AB7EE80
:10287000001A6CB1DFED2D1A012C01D0022C43D0CF
:1028800002EE101A1068F8EE422A81EEA22A1EE02B
:102890001C68A40611D51B6801EE901A1168C3F3D9
:1028A000C103F8EE612AD84001EE900AC1F3080096
:1028B000F8EE611A81EEA22A0BE001EE901ADFED2C
:1028C0001C2A00BFF8EE611A106882EEA12AC0F33C
:1028D000080001EE900AF8EE611A40EE201A31EE7F
:1028E000810A00E015E022EE000A1068C0F34620DD
:1028F000401C00EE900AF8EE600A80EE201ABCEE52
:10290000C10A10EE100A70BD01EE901ADFED092A1F
:10291000D8E7002070BD0000104402580090D0039A
:1029200000127A0000000039304402580024744A32
:102930000024744C0024F44A2DE9F05F04007CD09C
:10294000FF4F2078FE4D1837DFF8F493103DC00795
:1029500048D0D9F80000396800F03800102815D0A8
:10296000182803D101F0030002280FD06068B0F5E9
:10297000803F12D010B1B0F5A02F18D0286820F4F5
:1029800080302860286820F4802009E028688003CF
:1029900028D560680028D2D024E0286840F4803030
:1029A0002860606888B1FEF761FA064609E0286889
:1029B00040F480202860F0E7FEF758FA801B642876
:1029C0007ED828688003F7D50CE0FEF74FFA06465C
:1029D00005E000BFFEF74AFA801B6428F0D828689B
:1029E0008003F7D4207841F20308D54E0C3E8007CF
:1029F0004BD5D9F80000396810F038000ED01828EF
:102A000001D188070AD0E06868B3296821F019016C
:102A100001432960FEF72AFA824619E02868400738
:102A200002D5E06800288AD0FEF71AFA404513D88C
:102A30002069316821F47C3100E0BEE041EA0030D9
:102A4000306022E0FEF712FAA0EB0A000228B7D8A5
:102A500028684007F6D5E7E7207C316821F0FE4181
:102A600041EA0060ECE7286820F001002860FEF7EA
:102A7000FDF9824606E000BFFEF7F8F9A0EB0A0078
:102A800002289DD828684007F6D42078C00659D57A
:102A9000D9F80000DFF8A8B2396800F03800ABF1CF
:102AA000040B082812D0182803D101F003000128D4
:102AB0000CD0E0690028286834D040F0800000E0A5
:102AC000DCE02860FEF7D2F9824623E02868C005E2
:102AD00023D5E069802870D11FE000BF94F8200062
:102AE000316821F0F84141EA806030602AE000BF9F
:102AF00094F82010DBF8002022F07C5242EA0161B9
:102B0000CBF800101EE000BFFEF7B0F9A0EB0A0002
:102B100002289CD82868C005F6D5FEF7A1F94045E3
:102B2000E6D8DBE720F080002860FEF79FF9064634
:102B300005E000BFFEF79AF9801B022887D82868B5
:102B4000C005F7D42078000729D57D486169643035
:102B500000298046016811D041F001010160FEF7B3
:102B600085F9064605E000BFFEF780F9801B0228C4
:102B700087D8D8F800008007F6D510E021F00101D1
:102B80000160FEF773F9064605E000BFFEF76EF937
:102B9000801B022872D8D8F800008007F6D420786D
:102BA000800623D5A0690028286810D040F4805002
:102BB0002860FEF75BF9064605E02EE1FEF756F9C0
:102BC000801B02285AD828688004F7D50EE020F42C
:102BD00080502860FEF74AF9064604E0FEF746F901
:102BE000801B02284AD828688004F7D42078400740
:102BF0004FD5DFF85081D8F8001041F48071C8F843
:102C00000010FEF733F9064605E000BFFEF72EF987
:102C1000801B642832D8D8F80000C005F6D5484E8D
:102C2000A068603601280AD008B1052813D03068A2
:102C300020F001003060306820F0040002E03068CD
:102C400040F001003060A06841F2883A90B1FEF790
:102C50000DF980460AE0306840F004003060EEE78D
:102C6000FEF704F9A0EB0801514507D8306880074A
:102C7000F6D50EE0FEF7FAF8804607E084E000BFE4
:102C8000FEF7F4F8A0EB080151457DD830688007C5
:102C9000F6D4606AF0B3DFF8A880D9F8001008F124
:102CA0002008C1F3C20103296FD00228286820F050
:102CB0008070286003D0FEF7D9F8044682E0FEF762
:102CC000D5F8064605E000BFFEF7D0F8801B0228C5
:102CD00075D828688001F7D4E26A40F2F331386889
:102CE00054F8283F884340EA021018433860217B9B
:102CF0004FF4FE0C22894FF0FE47208A4902267DC0
:102D0000521E401EA1F5007189B20CEA0040C2F3C8
:102D1000080200E083E01143761E0143084807EAF9
:102D200006621143064A1C30C8F8001024320168BC
:102D300021F00101016011684FF6F876B14303E01C
:102D40001044025800480258236A41EAC301116046
:102D50000168A26921F00C01114301600168E26978
:102D600021F0020111430160016841F480310160EA
:102D7000016841F400310160016841F48021016083
:102D8000016841F0010101E019E01FE001602868DD
:102D900040F080702860FEF769F8044605E000BF47
:102DA000FEF764F8001B022809D828688001F7D5CF
:102DB00035E000BFFEF75AF8001B022802D90320B5
:102DC000BDE8F09F28688001F4D428E03968012824
:102DD000D8F8000021D0A26A01F0030393421CD16D
:102DE000E26AC1F305118A4217D1216BC0F30802D0
:102DF000491E8A4211D1616BC0F34622491E91429D
:102E00000BD1A16BC0F30642491E914205D1E16B83
:102E1000C0F30660491E814201D00120D0E70020A6
:102E2000CEE700002DE9F047040029D04A4A4FF0D0
:102E300000092068494B4A4D9042C4F8289006D0BA
:102E4000984204D0A84202D0E1680F2918D8E1685E
:102E50004FF0010AE76B0831C9080AEB57167143B6
:102E6000904205D0984203D0A84201D0082907D843
:102E7000904203D0984201D0A84204D1102902D92F
:102E80000120BDE8F08794F8810020B9204684F83D
:102E9000809000F067F8022084F8810020680168C3
:102EA00021F001010160A069B0F1806F0AD1606872
:102EB000B0F5800F06D1A06B20B92068016841F4FD
:102EC00080510160A56AE0692368E16B2843E268EC
:102ED000084310439860D4E90D02D4E905C1636A40
:102EE00025691843D4F820800A43266810432843F4
:102EF000A56DD4E90172D4E9123140EA0C0040EA30
:102F0000080038430843104318432843F0606068C2
:102F100068B92068816821F4C05141F40061816082
:102F20002068816821F4C06141F48061816020687B
:102F3000016D21F0010101656068400206D520683D
:102F4000626DC16821F000411143C160C4F88490F2
:102F500084F881A0002094E7003001400038004050
:102F6000003C00402DE9F04387B005461421684637
:102F7000FDF7AEFB5B490024286802255A4B103947
:102F8000584A052698421CD1106840F480501060C1
:102F9000106800F480500590086840F00100086057
:102FA00008686946514F00F0010005902020049602
:102FB000CDE90005CDE902543846FDF733FEC020C7
:102FC00089E04B4B01274FF4805898423BD145484C
:102FD0000838026842F400420260006800F40040D1
:102FE0000590086840F004000860086800F00400DC
:102FF0000590086840F002000860086806266946E7
:1030000000F00200059018158DE8A100394FCDE9B8
:1030100003463846FDF706FECDF800806946CDE947
:103020000154CDE903463846FDF7FCFD1020009021
:1030300031486946CDE90154CDE90346FDF7F2FD7B
:1030400007B0BDE8F0832D4B984224D1106840F4BE
:1030500000501060106800F400500590086840F0BF
:103060001000086008686946DFF8949000F01000CE
:10307000059060200090CDE90154CDE90346484613
:10308000FDF7D0FDCDF800806946CDE90346CDE9D6
:1030900001574846D2E71B4B9842D1D1106840F403
:1030A00080101060106800F480100590086840F0EF
:1030B0002000086008686946134F00F02000059062
:1030C00080200496CDE90005CDE902543846FDF78D
:1030D000A9FD4FF440700090CDE90154694638468F
:1030E000AAE70000F04402580030014000000258F6
:1030F000003C00400008025800040258003401401F
:103100000010025800500140001402582DE9FC5FE5
:103110000446006817468A4600211D4694F8802020
:1031200000F1200B0191012A0DD04FF0010884F825
:103130008080FDF79BFE814694F8810000260128DF
:1031400004D002201EE00220BDE8FC9FBAF1000F6F
:1031500017D0B7B1A1680320C4F85CA0A4F86070D0
:1031600084F88100C4F88460A4F862706666A4F8EC
:103170006860A4F86A60B1F5C02F6667266704D05E
:1031800008E0012084F88060DEE72068016841F4EF
:1031900000610160206841686FF30F0139434160AD
:1031A0002068016841F0010101606068B0F5800F9E
:1031B00004D12068016841F400710160E0680F28C3
:1031C0001AD82CE02068416989070BD5E16D0968A0
:1031D0000162E06D001DE065B4F86200401EA4F8D5
:1031E000620009E0FDF742FEA0EB0900A84202D30D
:1031F000681C01D005E025B1B4F862000028E1D1D7
:1032000083E0204601F028F8D4F8841084F8806028
:1032100041F48071C4F8841084F881808DE007281F
:103220002CD86EE02068416989071CD5B4F862107B
:1032300001290BD9E16B49B1E16D09680162E06DCB
:10324000001DE065B4F86200801E09E0E06D0188B1
:10325000ABF80010E06D801CE065B4F86200401E21
:10326000A4F862000AE0FDF701FEA0EB0900A84205
:1032700002D3681C02D0C4E7002DC2D0B4F86200AB
:103280000028CFD141E02068416989072ED5B4F8E4
:10329000621003290CD9E16B402909D9E16D096855
:1032A0000162E06D001DE065B4F86200001F1AE0E5
:1032B000B4F8621001290CD9E16B51B1E06D0188BD
:1032C000ABF80010E06D801CE065B4F86200801E71
:1032D00009E0E16D097880F82010E06D401CE065A0
:1032E000B4F86200401EA4F862000AE0FDF7BEFDDB
:1032F000A0EB0900A84202D3681C02D081E7002D90
:10330000B9D0B4F862000028BDD100224B46082194
:103310002046009500F0FEFF28B1D4F8840040F06C
:103320002000C4F88400204600F096FF84F88180D5
:10333000D4F8840084F8806008B1012004E7019883
:1033400002E7401EB0F1807F10B501D3012010BD0F
:103350004FF0E02460610F21601703F05EFD002054
:10336000A0610721216110BDF0B590F83C20012A31
:1033700038D01D4E012480F83C40022280F83D20C8
:1033800002681A4D5368B242D2F808C001D0AA426E
:1033900003D14F6823F470033B430F6823F070039D
:1033A0001F4357600268B24210D0B2F1804F0DD077
:1033B0000F4B9A420AD00F4B9A4207D00E4B9A42BB
:1033C00004D0AA4202D00D4B9A4204D189682CF055
:1033D000800319439160002180F83D4080F83C1043
:1033E0000846F0BD0220F0BD00000140000401408D
:1033F0000004004000080040000C0040001800409D
:1034000010B5040003D094F83D0010B107E001208E
:1034100010BD002084F83C00204600F00DF802208A
:1034200084F83D002068211D01F048F8012084F84F
:103430003D00002010BD000008B500680649884224
:1034400008D10648016841F004010160006800F0FD
:103450000400009008BD000000080040E844025845
:103460000A4B022180F83D1001688A681A40062A3A
:1034700006D0B2F5803F03D00A6842F001020A602C
:10348000012180F83D100020704700000700010076
:1034900070B5044690F83C00012814D0394B012542
:1034A00084F83C50022084F83D002268906818405F
:1034B00020F47F4090600868702828D010DC10F05D
:1034C0000F0F03D04BE04FF0020070BD4FEA201207
:1034D000072A44D2DFE802F05151515149323A00F3
:1034E000B0F1101F49D009DCB0F5805F37D0B0F5DE
:1034F000005F17D0B0F5801F31D13EE0A0F58011FC
:1035000020393AD0102938D0202928D135E04A680E
:103510002068D1E9021301F040F82068816841F089
:10352000770109E04A682068D1E9021301F035F813
:103530002068816841F48041816010E0CA68496870
:10354000206801F0C5F92068502106E0CA68496882
:10355000206801F0CEF92068602101F027F80020F2
:1035600084F83D5084F83C0070BDCA684968206802
:1035700001F0AEF920684021EFE7226801461046CD
:10358000EBE7000088FFCEFF10B586B0044614219B
:103590006846FDF79DF80D492068884214D10C4813
:1035A000016841F0080101600068002100F0080096
:1035B0000590022042030092CDE90101CDE90310FC
:1035C00004486946FDF72EFB06B010BD0008004018
:1035D000E0440258000C025870B5044690F83C00D4
:1035E0000D4601280ED0012684F83C60022084F8A4
:1035F0003D000C2A45D007DC5AB1042A1BD0082A0A
:1036000078D12CE0022070BD102A4ED0142A71D13E
:103610005DE0206800F0D4FF2068816941F0080176
:1036200081612068816921F00401816120682A6933
:103630008169114311E0206801F016F82068816962
:1036400041F4006181612068816921F480618161B8
:1036500020682969826942EA012181614AE0206883
:1036600001F04EF82068C16941F00801C16120688D
:10367000C16921F00401C16120682A69C16911434F
:1036800011E0206801F082F82068C16941F400610E
:10369000C1612068C16921F48061C1612068296924
:1036A000C26942EA0121C16124E0206801F0A4F866
:1036B0002068416D41F0080141652068416D21F0AD
:1036C0000401416520682A69416D114311E02068B9
:1036D00001F0C8F82068416D41F40061416520683F
:1036E000416D21F48061416520682969426D42EA9B
:1036F00001214165002084F83D6084F83C0070BDE4
:1037000010B5040003D094F83D0010B107E001208B
:1037100010BD002084F83C00204600F00CF8022088
:1037200084F83D002068211D00F0C8FE012084F8C7
:103730003D00002010BD704710B50122044600680E
:1037400000F01EFF1148216881420BD010488142D1
:1037500008D01048814205D00F48814202D00F485E
:10376000814203D1486C40F40040486420680C4A10
:1037700081681140062906D0B1F5803F03D0016869
:1037800041F001010160002010BD00000000014077
:103790000004014000400140004401400048014055
:1037A0000700010030B590F87C10012918D00122E3
:1037B00080F87C202421C0F880100022202450F8BA
:1037C000601B0B680D6823F0005325F001050D60A8
:1037D000426050F8601C0B6004620277104630BDF6
:1037E000022030BD70B5044690F87C0001281DD041
:1037F000012284F87C202420C4F880002068056819
:10380000026822F0010202602068826822F0606291
:103810000A438260204601F07FF8226820210020C0
:103820001560C4F8801084F87C0070BD022070BD63
:1038300070B5044690F87C0001281DD0012284F860
:103840007C202420C4F8800020680568026822F0EB
:10385000010202602068826822F060420A438260AE
:10386000204601F059F82268202100201560C4F894
:10387000801084F87C0070BD022070BD10B504007B
:1038800003D0D4F8800010B107E0012010BD002063
:1038900084F87C00204600F027F82420C4F880003B
:1038A0002068016821F001010160204601F0FAF86A
:1038B0000128EBD0A06A10B1204601F05FF8206823
:1038C000416821F4904141602068816821F02A011B
:1038D00081602068016841F0010101602046BDE877
:1038E000104001F0AFB8000010B586B004461421B6
:1038F0006846FCF7EDFE13492068884220D1124843
:10390000016841F480210160006800F48020059086
:103910000D480838016841F008010160006807237C
:10392000022200F00800059000204FF44071009141
:103930006946CDE90120CDE903030448FDF772F99A
:1039400006B010BD00480040E8440258000C025880
:10395000FEE70000F0B500230A251C463026372775
:1039600011E000BFB5EB107F02D906EB107C01E03F
:1039700007EB107C01F813C001EB430C00015B1C4A
:103980008CF80140DBB29342ECD3F0BD2DE9F04F4F
:1039900087B014216846FCF79BFE8048016841F01F
:1039A00010010160016801F010010591016841F00A
:1039B00004010160016801F004010591016841F012
:1039C00020010160016801F020010591016841F0CA
:1039D00080010160016801F080010591016841F0FA
:1039E00001010160016801F001010591016841F0E8
:1039F00002010160016801F002010591016841F0D6
:103A000040010160016801F040010591016841F049
:103A100008010160006848F20604614E002200F0CF
:103A20000800214605903046FDF714FA5D4F01224B
:103A300011463846FDF70EFADFF86CA148F201098D
:103A4000002249465046FDF705FADFF860B1002232
:103A50004DF221015846FDF7FDF95548002203219A
:103A6000FDF7F8F95348002240F60341FDF7F2F95B
:103A7000514800228021FDF7EDF901224E48D10284
:103A8000FDF7E8F94B4801220421FDF7E3F9012293
:103A900058460821FDF7DEF9012569463046CDE993
:103AA0000045002402940394FDF7BCF84FF400583D
:103AB0004148CDE9008469460294FDF7B3F80095CA
:103AC0006946CDE9015438460394FDF7ABF832203E
:103AD00000900B27384802266946CDE90164CDE9FC
:103AE0000347FDF79FF8CDF800906946CDE90154F2
:103AF00050460394FDF796F806200090CDE9016446
:103B0000CDE9034769465046FDF78CF84DF2290090
:103B10000090CDE90154694658460394FDF782F8B8
:103B200003200090CDE90154214869460394FDF734
:103B300079F8CDF800806946CDE90164CDE9034705
:103B40005846FDF76FF840F607400090CDE9015464
:103B5000184869460394FDF765F8184980208DE8F8
:103B6000130013486946FDF75DF84FF408600090B4
:103B7000CDE90154104869460394FDF753F84FF41A
:103B800020500090CDE9016409486946CDE903471A
:103B9000FDF748F807B0BDE8F08F0000E044025898
:103BA0000010025800140258000002580004025885
:103BB00000180258000C02580008025800001111A9
:103BC0002DE9F04115480F254FF08042124F00219A
:103BD0009411C0E9021513118361C0E90414C0E90E
:103BE0000721416216128162C162C0E90D21C163E1
:103BF000016441648164C164016541658165C0E916
:103C00000076FFF70FF9002803D0BDE8F041FCF77C
:103C1000F6BFBDE8F0810000003001408C010024B7
:103C20002DE9F04115484FF080420F25124F131136
:103C3000002154110461C0E90215C0E90513C0E96F
:103C40000721416216128162C162C0E90D21C16380
:103C5000016441648164C164016541658165C0E9B5
:103C60000076FFF7DFF8002803D0BDE8F041FCF74D
:103C7000C6BFBDE8F0810000003C004014020024F3
:103C80002DE9F04115484FF080420F25124F1311D6
:103C9000002154110461C0E90215C0E90513C0E90F
:103CA0000721416216128162C162C0E90D21C16320
:103CB000016441648164C164016541658165C0E955
:103CC0000076FFF7AFF8002803D0BDE8F041FCF71D
:103CD00096BFBDE8F0810000003401409C02002442
:103CE0002DE9F04115480F254FF08042124F002179
:103CF0009411C0E9021513118361C0E90414C0E9ED
:103D00000721416216128162C162C0E90D21C163BF
:103D1000016441648164C164016541658165C0E9F4
:103D20000076FFF77FF8002803D0BDE8F041FCF7EC
:103D300066BFBDE8F081000000500140240300246C
:103D400010B58EB000241C21009407A801940294A1
:103D50000394049405940694FCF7BAFC1E483F2192
:103D60001C4B8022C0E90034C0E902410461826139
:103D7000FFF746FB08B1FCF742FF4FF4805000907C
:103D800015486946FFF784FB08B1FCF738FF124875
:103D9000FFF7B6FC08B1FCF732FF0F4804A9049402
:103DA0000694FFF7E1FA08B1FCF729FF07AA6020A3
:103DB000202182E813000848082207A90B94FFF786
:103DC0000BFC08B1FCF71BFF0348FFF7DDFB0EB04F
:103DD00010BD000000080040AC030024184800217A
:103DE00010B5164C0C224FF4E1330460C0E90131E8
:103DF000C160C0E904128161C161016241628162F6
:103E0000FFF73CFD08B1FCF7FAFE0D480021FFF773
:103E10000FFD08B1FCF7F3FE09480021FFF7E2FCB3
:103E200008B1FCF7ECFE0648FFF7BCFC002803D005
:103E3000BDE81040FCF7E3BE10BD000000480040A4
:103E4000EC03002410490022104810B501F063FF74
:103E500008B1FCF7D4FE0E490C4802F03FF908B156
:103E6000FCF7CDFE0B49094801F05CFD08B1FCF7F9
:103E7000C6FE064802F08AF908B1FCF7C0FEBDE8AC
:103E80001040FDF79DBD00000400002478040024CC
:103E90005401002454000024FEE770470148FDF758
:103EA000F1B900003C0700242DE9F0410446006907
:103EB0000D462027236801284FF4004604F571724F
:103EC00003EB4511D3F840C0D1F8080B09D0DFF857
:103ED0009CE0F4453AD1020433D500BFC1F8086B29
:103EE00040E0234B5FEA007E04D59C453AD90004AC
:103EF000F4D437E05FEA806E02D5C1F8087B31E088
:103F000010F0280F2ED19C4501D90004E6D4D1F839
:103F1000103BC5EBC50004EB8000C3F31203D0F8DF
:103F20000412A1EB0303C0F81432D0F8083219448C
:103F3000C0F8081295B9D4F8100278B920680121A8
:103F40000AE080060AD5C1F8087B07E035B9D4F845
:103F5000100218B90021184602F0C4FC2046E9B24C
:103F6000FDF777F80020BDE8F08100000A31544FDA
:103F70000A30544F2DE9F84F0E4605688146C1EBD3
:103F8000C60100EB8104D4E914203C34904202D9EC
:103F90000120BDE8F88FA168101A814200D20846BE
:103FA000C01C05EB461887081BE000BFA268A0EB09
:103FB000010A524500D2924699F810100AF1030006
:103FC00000911FFA8AF3E16887082846F2B202F0EE
:103FD00011FFE16801EB0A00E060A16901EB0A0052
:103FE000A061D8F8180980B2B84205D3D4E9050118
:103FF000814201D20028D9D1D4E90501884208D8EC
:10400000D5F83418012006F00F0290408143C5F81E
:1040100034180020BDE770472DE9F047454D0446B0
:1040200089464FF0000A2868C04380070AD0414EF5
:10403000283E306820F080603060FCF717FF0746AC
:10404000B04608E00120BDE8F08700BFFCF70EFF96
:10405000C01B022867D8D8F800000001F6D42068F9
:1040600029684FF4FE0721F47C313E0241EA00301A
:104070002860207AA389B4F804C040022D4D2D4950
:104080005B1E227CACF1010C1035091DA0F50070FF
:1040900080B2521ECCF3080C07EA034340EA0C003E
:1040A000184306EA0262104328600868626920F03B
:1040B000C000104308600A68A06922F02002024391
:1040C0000A60281D0A6822F010020A6002684FF692
:1040D000F873E4699A4342EAC40202600868B9F1DD
:1040E000000F40F010020A6011D00868B9F1010F0A
:1040F00011D040F400100860D8F80000444640F0A9
:104100008060C8F80000FCF7B1FE05460DE00868C5
:1041100040F40020EFE740F48010ECE7FCF7A6FE47
:10412000401B022801D903208DE720680001F5D546
:10413000504688E7284402582DE9F047454D04468B
:1041400089464FF0000A2868C04380070AD0414ED4
:10415000283E306820F080503060FCF787FE07462C
:10416000B04608E00120BDE8F08700BFFCF77EFE06
:10417000C01B022867D8D8F800008000F6D4208839
:1041800029684FF4FE0721F07C713E0241EA00509D
:104190002860207AA389B4F804C040022D4D2D492F
:1041A0005B1E227CACF1010C1835091DA0F50070D6
:1041B00080B2521ECCF3080C07EA034340EA0C001D
:1041C000184306EA0262104328600868626920F416
:1041D0004060104308600A68A06922F4007202433C
:1041E0000A60281D0A6822F480720A6002684FF68D
:1041F000F873E4699A4342EAC40202600868B9F1BC
:10420000000F40F480720A6011D00868B9F1010F04
:1042100011D040F080700860D8F80000444640F0AB
:104220008050C8F80000FCF721FE05460DE0086844
:1042300040F48000EFE740F40000ECE7FCF716FEE6
:10424000401B022801D903208DE720688000F5D5A6
:10425000504688E72844025810B5026840F26F3390
:104260005169946944F0080494610268946944F0C7
:10427000100494610268146824F001041460026858
:1042800014699C4314610268936823F4404393606B
:1042900090F88120042A0CD08A060AD5D0F8842010
:1042A00042F08002C0F884200268936943F0200342
:1042B000936190F88120032A0CD04A060AD5D0F8E1
:1042C000842042F00402C0F884200268936943F01D
:1042D000400393618A050AD5D0F8842042F0010298
:1042E000C0F884200268936943F400739361C905A0
:1042F0000AD5D0F8841041F00801C0F88410016894
:104300008A6942F480728A610021A0F86210A0F8E4
:104310006A1010BD2DE9F041984616460D46074635
:10432000069C09E0FCF7A2FDA0EB0800A04202D326
:10433000601C01D00BE054B13868406935EA0000D8
:1043400007D00020B042EDD00020BDE8F08103206E
:10435000FBE70120F6E77047FCF78EBD70B5CCB0E7
:104360004C212FA8FCF7B4F9202142A8FCF7B0F9A2
:10437000BC216846FCF7ACF90220FDF7F7FA2549A5
:1043800025480A6822F001020A60096801680024D1
:1043900021F4404141F480410160016801F4404151
:1043A0004A9101688904FCD54FF4A02603254022D8
:1043B000CDE92F56012102203890CDE9321239AAD9
:1043C0001823042582E80B000C263E90CDE93C051D
:1043D000CDE93F642FA84194FEF7AEFA3F20449404
:1043E000CDE942040021459442A84694479448945C
:1043F0004994FEF791F80948A904179418941D945C
:10440000219100906846FDF739FCFDF7D9FA4CB0D0
:1044100070BD00002C0400581848025802300400F7
:10442000214A30B5214914680020204B44F470041F
:10443000146010330A681E4D42F001020A601860D1
:104440000A681A4B2A400A6018331C1D251D174A9A
:10445000186028322060131D28601C1D251D106067
:104460002A1D1860131D20601C1D2860251D10606A
:104470001860206028600A680C4B0E4C22F48022E1
:1044800060330A60186020686FF30F00B0F1005FBE
:1044900003D209490120C1F808014FF00060024928
:1044A0008039086030BD000088ED00E0004402580B
:1044B0007FEDF6EA0010005C008000512DE9F04726
:1044C000274B4FF0804A274D02689842264E274FCF
:1044D000274C09D0504507D0A84205D0B04203D0A0
:1044E000B84201D0A04205D1D1F804C022F0700238
:1044F0004CEA0202DFF87CC0DFF87C809842DFF8EB
:104500007C900FD050450DD0A8420BD0B04209D0BE
:10451000B84207D0A04205D0604503D0404501D045
:10452000484503D1CD6822F440722A434D6922F0F8
:1045300080022A43026098428A68C2620A688262E4
:1045400007D0A04205D0604503D0404501D0484582
:1045500001D10969016301214161BDE8F0870000D3
:10456000000001400004004000080040000C004032
:104570000004014000400140004401400048014067
:1045800010B5046A012301F01F018B409C430462B3
:104590008A40016A1143016210BD42EA0322836826
:1045A0000A4323F47F410A4382607047034B8268C9
:1045B0001A400A4342F00701816070478FFFCFFF26
:1045C0002DE9F04F026ADFF88880DFF8889022F04A
:1045D0000102DFF884A0DFF884B0214F0262DFF827
:1045E00084C0066A4268836926F002060D68B842F4
:1045F0008C6803EA0C0323F0030344EA060445EA4B
:10460000030507D0404505D0484503D0504501D0AB
:10461000584505D1CB6824F00804234323F0040453
:10462000B84207D0404505D0484503D0504501D099
:10463000584505D122F44076D1E9053233431A4377
:1046400042608561496841630462BDE8F08F000003
:104650000004014000400140004401400048014086
:10466000000001408FFFFEFFF0B5026A1E4E1F4C96
:1046700022F01002DFF878E00262056A436882697E
:1046800025F02005D1F808C0A0420F6802EA060212
:1046900022F4407245EA0C1542EA072201D0704527
:1046A00006D1CE6825F0800545EA061525F04005BF
:1046B000A0420AD0704508D00E4CA04205D00E4C46
:1046C000A04202D00D4CA04207D1D1E9054623F407
:1046D000406343EA840343EA860343608261496896
:1046E00081630562F0BD0000FF8FFFFE0000014006
:1046F00000040140004001400044014000480140E6
:10470000F0B5026A1C4D1D4E22F48072A84202626E
:10471000026A4368C76922F40072D1F808C00C68C5
:1047200027F0730742EA0C2244EA070401D0B042A2
:1047300006D1CF6822F4006242EA072222F48062A6
:10474000A8420AD0B04208D00D4DA84205D00D4D68
:10475000A84202D00C4DA84207D1D1E9055623F456
:10476000405343EA051343EA06134360C4614968B2
:10477000C1630262F0BD000000000140000401407E
:1047800000400140004401400048014070B5026A09
:10479000144B22F4805202629842036A4268C46950
:1047A00023F400538E680D6824F4E64443EA06338C
:1047B00044EA05240BD00C4DA84208D00B4DA8426A
:1047C00005D00B4DA84202D00A4DA84204D14D6934
:1047D00022F4804242EA85124260C4614968016461
:1047E000036270BD00000140000401400040014030
:1047F0000044014000480140F0B5026A22F48032D2
:104800000262134F056A4268446D25F400350E8933
:10481000B8420B6824F0700445EA064543EA0403F5
:104820000BD00C4CA04208D00B4CA04205D00B4C36
:10483000A04202D00A4CA04204D14C6922F480323A
:1048400042EA042242604365496881650562F0BD21
:1048500000000140000401400040014000440140CC
:1048600000480140F0B5026A22F480120262134F40
:10487000046A4268436D24F400140E89B8420D683E
:1048800023F4E04344EA065443EA05230BD00C4DDD
:10489000A84208D00B4DA84205D00B4DA84202D02B
:1048A0000A4DA84204D14D6922F4003242EA852221
:1048B000426043654968C1650462F0BD0000014083
:1048C0000004014000400140004401400048014014
:1048D00010B5036A046A23F00A0324F00104046299
:1048E00084690B4324F0F00141EA02118161036203
:1048F00010BD10B5036A23F0100303628369046AD4
:1049000023F4704324F0A00443EA0232826144EAB3
:104910000111016210BD00003FB514A1D1E90023CF
:1049200014A1CDE90023D1E90021CDE90221416E96
:10493000B9B1016802AC8A688968C2F34262490F62
:104940001DF80150615CED00B5FBF1F1A0F86A10B3
:104950001DF80210A25CC900B1FBF2F1A0F86810CA
:104960003FBD0121A0F86A10F8E700000101010332
:1049700007010000080402040801010190F8281052
:10498000C90706D00168C36A4A6822F400321A4394
:104990004A6090F82810890706D50168036B4A68B9
:1049A00022F480321A434A6090F82810490706D54D
:1049B0000168436B4A6822F480221A434A6090F8E7
:1049C0002810090706D50168836B4A6822F4004263
:1049D0001A434A6090F82810C90606D50168C36BCF
:1049E0008A6822F480521A438A6090F82810890657
:1049F00006D50168036C8A6822F400521A438A6063
:104A000090F82810490611D50168436C4A6822F4D1
:104A100080121A434A60416CB1F5801F06D10168CB
:104A2000836C4A6822F4C0021A434A6090F8281046
:104A3000090606D50168C26C486820F400201043BE
:104A400048607047F8B500260446C0F88860FCF757
:104A50000DFA054620686FF07E470068000708D50C
:104A600000222B464FF400112046009700F022FE52
:104A700060B92068006840070AD500222B464FF431
:104A800080012046009700F015FE08B10320F8BD14
:104A90002020C4F8800084F87C60C4F884000020E2
:104AA000F8BD00002DE9F04F04468068F94E87B04C
:104AB0002168D4E90457E269636E28430D681743FF
:104AC0003843F54A03434FF0000835401D430D605D
:104AD0002068E368416821F440511943416023682C
:104AE000A069934201D0216A08439D68EB4FEC4EC8
:104AF000EC493D4005439D602068656AC36A23F028
:104B00000F032B43C3622068B0420ED1096801F045
:104B10003801182973D047DCB9B3082979D0102996
:104B20006FD178E028297ED17BE0DF4B984209D114
:104B3000096801F00701062975D2DFE801F0546A1F
:104B40006C6E7072D94B984209D1096801F0070167
:104B5000062968D2DFE801F0475D5F616365D44BE9
:104B6000984209D1096801F0070106295BD2DFE804
:104B700001F03A5052545658CE4B98420BD1096826
:104B800001F0070106294ED200E010E0DFE801F055
:104B90002B4143454749C84B98420AD1096801F067
:104BA0003801182939D0B7DD2029BBD137E00127DA
:104BB0003AE0C24B984209D1096801F00701062981
:104BC00031D2DFE801F01026282A2C2EBC4B984267
:104BD0000BD1096801F00701062924D2DFE801F0B2
:104BE00003191B1D1F2100271EE090421BD1AD4958
:104BF000091D096801F00701062914D202E00CE042
:104C000007E010E0DFE801F0030507090B0D0227BC
:104C10000AE0042708E0082706E0102704E0202720
:104C200002E0402700E08027DFF898A2DFF898B282
:104C300090424FF480754FF000097AD1102F51D077
:104C400006DC022F09D0042F27D0082F72D12DE0C7
:104C5000202F70D0402F6DD1F0E0FCF7B9FE014657
:104C6000606A1FE0012827D0022827D0032827D018
:104C7000042827D0052827D0062827D0072827D0A2
:104C8000082827D0092827D00A2827D00B2827D082
:104C90000AE000BFB1FBF0F07EE06846FCF7AAFE38
:104CA000606A01990028DDD10120F3E703A8FCF731
:104CB00043FF606A0499F5E70220EBE70420E9E787
:104CC0000620E7E70820E5E70A20E3E70C20E1E714
:104CD0001020DFE72020DDE74020DBE78020D9E758
:104CE0002846D7E7DBF8000059468006606A39D5C8
:104CF0000968C1F3C1012AFA01F2A8B101281BD049
:104D000002281BD003281BD004281BD005281BD049
:104D100006281BD007281BD008281BD009281BD029
:104D20000A281BD00B281BD05FF00100B2FBF0F06B
:104D300032E033E2A2E050E00220F7E70420F5E79A
:104D40000620F3E70820F1E70A20EFE70C20EDE763
:104D50001020EBE72020E9E74020E7E78020E5E7A7
:104D60002846E3E7A8B1012821D0022821D0032852
:104D700021D0042821D0052821D0062821D00728B9
:104D800021D0082821D0092821D00A2821D00B2899
:104D900021D00120BAFBF0F000286ED0666806EB47
:104DA000460181426AD8B0EB063F67D89DE00220F9
:104DB000F0E70420EEE70620ECE70820EAE70A2007
:104DC000E8E70C20E6E71020E4E72020E2E74020B7
:104DD000E0E78020DEE72846DCE7606AA8B101282A
:104DE00016D0022816D0032816D0042816D005287D
:104DF00016D0062816D0072816D0082816D009285D
:104E000016D00A2816D00B2816D001202F4941E7CA
:104E10000220FBE70420F9E70620F7E70820F5E782
:104E20000A20F3E70C20F1E71020EFE72020EDE760
:104E30004020EBE78020E9E72846E7E7606AA8B171
:104E4000012818D002281AD003281AD004281AD012
:104E500005281AD006281AD0072839D0082839D0B2
:104E6000092839D00A2839D00B2839D05FF0010041
:104E70004FF400410EE70220FAE77CE232E0042022
:104E8000F6E70620F4E70820F2E70A20F0E70C2016
:104E9000EEE70000F369FFCF000C0058FFF4FF11AC
:104EA00000100140544402580044004000480040B3
:104EB000004C0040005000400014014000780040C9
:104EC000007C00400090D0030044025800093D00DF
:104ED0001020CDE72020CBE74020C9E78020C7E79E
:104EE0002846C5E74FF0010845E2102F7FD023DCAC
:104EF000022F4ED0042F75D0082FF3D103A8FCF752
:104F00001BFE0499606AA8B1012846D0022846D049
:104F1000032846D0042846D0052846D0062846D087
:104F2000072846D0082846D0092846D00A2846D067
:104F30000B2845D0012543E0202F7DD0402FD1D133
:104F4000606AA8B1012878D0022877D0032876D0EB
:104F5000042875D0052874D0062873D0072872D08D
:104F6000082871D0092870D00A286FD00B2800D0EB
:104F700001254F4600232A464FF400400021FBF74D
:104F800079FA02467008130E1202101843EA012142
:104F90006AE0FCF71DFD0146B4E7022510E0042598
:104FA0000EE006250CE008250AE00A2508E00C259D
:104FB00006E0102504E0202502E0402500E08025E1
:104FC0004E4600232A4608461946FBF753FA626804
:104FD0000902030241EA106150081818714145E0C6
:104FE00005E0FFE76846FCF705FD01998AE7DBF875
:104FF00000105846890656D50068C0F3C1002AFA49
:1050000000F1606AA8B1012839D0022839D00328FC
:1050100039D0042839D0052839D0062839D00728B6
:1050200039D0082839D0092839D00A2839D00B2896
:1050300000D001252A460AE067E099E09AE09BE06B
:105040009CE09DE09EE09FE0A0E0A1E0A2E00023C4
:105050004F4608461946FBF70DFA09020346720847
:105060000002801841EA1361324679410023FBF7C0
:1050700001FAFA49A0F540728A426ED932E7022558
:10508000D8E70425D6E70625D4E70825D2E70A2580
:10509000D0E70C25CEE71025CCE72025CAE7402530
:1050A000C8E78025C6E7606AA8B1012819D00228A0
:1050B00019D0032819D0042819D0052819D006289A
:1050C00019D0072819D0082819D0092819D00A287A
:1050D00019D00B2800D001254F4600232A46504600
:1050E0004CE70225F8E70425F6E70625F4E708254E
:1050F000F2E70A25F0E70C25EEE71025ECE720257E
:10510000EAE74025E8E78025E6E7606AA8B10128DC
:1051100019D0022819D0032819D0042819D005283D
:1051200019D006281AD007281AD008281AD009281A
:105130001AD00A281AD00B2800D00125C84800230D
:105140004F462A461AE70225F8E70425F6E7062522
:10515000F4E70825F2E70A25F0E71DE00C25EDE766
:105160001025EBE72025E9E74025E7E78025E5E77F
:105170000225FEE60425FCE60625FAE60825F8E603
:105180000A25F6E60C25F4E61025F2E62025F0E6E1
:105190004025EEE68025ECE62168EBE0E0694FF47F
:1051A00000414FF6EF7688426FD1082F65D00BDCB7
:1051B0006FB3012F5CD0042F7FF460AF6846FCF71B
:1051C00019FC606A01995DE0102F5FD0202F7DD01F
:1051D000402FF1D1606AA8B1012878D0022877D099
:1051E000032876D0042875D0052874D0062873D0FB
:1051F000072872D0082871D0092870D00A286FD0EB
:105200000B2800D001256068B1FBF5F1A0E0FDF7A7
:10521000D3FA2FE0012815D0022815D0032815D085
:10522000042815D0052815D0062815D0072815D034
:10523000082815D0092815D00A2815D00B2814D015
:10524000012512E0022510E004250EE006250CE001
:1052500008250AE00A2508E00C2506E0102504E0F0
:10526000202502E0402500E08025B1FBF5F13EE07D
:10527000FDF7B4FA0146606A04E003A8FCF75CFCA1
:10528000606A04990028DBD0C4E7D8E0DBF80000AE
:1052900059468006606A40D50968C1F3C1012AFAFF
:1052A00001F208B3012824D0022824D0032824D0F6
:1052B000042824D0052824D0062824D0072824D068
:1052C000082824D0092824D00A280AE074E0A2E0A3
:1052D000A3E0A4E0A5E0A6E0A7E0A8E0A9E0AAE09A
:1052E000ABE018D00B2800D00125B2FBF5F16068C7
:1052F0002EE00225F9E70425F7E70625F5E708255E
:10530000F3E70A25F1E70C25EFE71025EDE7202567
:10531000EBE74025E9E78025E7E7A8B1012837D08A
:10532000022837D0032837D0042837D0052837D0B3
:10533000062837D0072837D0082837D0092837D093
:105340000A2837D00B2800D001256068BAFBF5F198
:10535000490001EB5001B1FBF0F080B2A0F1100167
:10536000B1423FF68BAE4FF6F0732168C0F34202B4
:1053700018401043C8600121A4F86A104046A4F800
:105380006810C4F86C90C4F8709007B0BDE8F08F56
:105390000225DAE70425D8E70625D6E70825D4E76D
:1053A0000A25D2E70C25D0E71025CEE72025CCE74B
:1053B0004025CAE78025C8E7606AA8B1012816D051
:1053C000022816D0032816D0042816D0052816D097
:1053D000062816D0072816D0082816D0092816D077
:1053E0000A2816D00B2800D001251D490BE70225FD
:1053F000FBE70425F9E70625F7E70825F5E70A2581
:10540000F3E70C25F1E71025EFE72025EDE7402530
:10541000EBE78025E9E70225F5E60425F3E6062516
:10542000F1E60825EFE60A25EDE60C25EBE610256A
:10543000E9E62025E7E64025E5E68025E3E6082FB6
:105440006AD00FDC8FB3012F61D0042F7FF416AE2A
:105450006846FCF7CFFA606A019962E0FFFC0F0032
:1054600000093D00102F5FD0202F7DD0402FEDD1BF
:10547000606AA8B1012878D0022877D0032876D0B6
:10548000042875D0052874D0062873D0072872D058
:10549000082871D0092870D00A286FD00B2800D0B6
:1054A00001256068B1FBF5F1A0E0FFE7FDF784F9A5
:1054B0002FE0012815D0022815D0032815D0042884
:1054C00015D0052815D0062815D0072815D008288E
:1054D00015D0092815D00A2815D00B2814D001257D
:1054E00012E0022510E004250EE006250CE0082558
:1054F0000AE00A2508E00C2506E0102504E0202536
:1055000002E0402500E08025B1FBF5F13DE0FDF72C
:1055100065F90146606A04E003A8FCF70DFB606AC8
:1055200004990028DBD0C4E7DBF800005946800668
:10553000606A40D50968C1F3C1012AFA01F208B3D3
:10554000012824D0022824D0032824D0042824D0E1
:10555000052824D0062824D0072824D0082824D0C1
:10556000092824D00A280AE05FE08DE08EE08FE071
:1055700090E091E092E093E094E095E096E018D01E
:105580000B2800D00125B2FBF5F160682EE0022562
:10559000F9E70425F7E70625F5E70825F3E70A25E7
:1055A000F1E70C25EFE71025EDE72025EBE7402597
:1055B000E9E78025E7E7A8B1012822D0022822D018
:1055C000032822D0042822D0052822D0062822D061
:1055D000072822D0082822D0092822D00A2822D041
:1055E0000B2800D001256068BAFBF5F101EB5001F2
:1055F000B1FBF0F080B2A0F11001B1427FF6CCAD6A
:1056000070E40225EFE70425EDE70625EBE7082522
:10561000E9E70A25E7E70C25E5E71025E3E720257C
:10562000E1E74025DFE78025DDE7606AA8B10128D2
:1056300016D0022816D0032816D0042816D0052824
:1056400016D0062816D0072816D0082816D0092804
:1056500016D00A2816D00B2800D00125144920E7BF
:105660000225FBE70425F9E70625F7E70825F5E716
:105670000A25F3E70C25F1E71025EFE72025EDE7F4
:105680004025EBE78025E9E702250AE7042508E73E
:10569000062506E7082504E70A2502E70C2500E7AA
:1056A0001025FEE62025FCE64025FAE68025F8E6F2
:1056B00000093D002DE9F0479A4617460E4604467C
:1056C000089D4FF000094FF0200839E0681C37D0E2
:1056D000FBF7CCFBA0EB0A00A84222D80DB3206850
:1056E000016849072CD5C069C043000528D4236848
:1056F0004FF40061196221680B6823F4D0730B60CA
:1057000021688B6823F001038B60C4F88080C4F8A3
:105710008480C4F8888000BF032084F87C90BDE8B2
:10572000F08721680B6823F4D0730B6021688B68C5
:1057300023F001038B60C4F88080C4F88480EBE719
:105740002068C06936EA000004D00020B842BDD00D
:105750000020E4E70120F9E72DE9F041D0F8C0325C
:10576000D0F8B822DAB101EB8104002500EB840403
:10577000E6694EB1C1EBC10703EB87035B6CB6FB77
:10578000F3F703FB176323B1C2F814520020BDE8FE
:10579000F0810023E5611A4600F083FCF6E7022061
:1057A000F5E770B5D0F8B842054600F08AFBC4F8BA
:1057B0000C02D5F8B80248B1D5F8BC0204F5037163
:1057C000C268D4F804029047002070BD022070BD6A
:1057D00070B500260446812100F0BBFA0025204662
:1057E0000121E56200F0B5FA82212046C4F86C512F
:1057F00000F0AFFAD4F8B802256448B1D4F8BC027E
:1058000004F52E74406880472068FAF70CFE256086
:10581000304670BD10B5D0E9AE4159B194F80002E0
:10582000FF2807D08B68214694F801229847FF2073
:1058300084F80002002010BD0A2101800048704752
:105840007C0000244321018000487047CC000024E4
:1058500043210180004870478800002443210180D3
:1058600000487047100100242DE9F041012504464D
:10587000007C00264FF4007790B34023204602229C
:10588000812100F069FB4023E562022220460121CC
:1058900000F062FB082320460322C4F86C518221E9
:1058A00000F05AFB4FF407702564FAF78DFDC4F839
:1058B000B802F8B10546D4F8BC0200688047002061
:1058C000C5F81402C5F81802207CD5F8042298B156
:1058D00040232046012100F04BFB3046BDE8F0811B
:1058E000FFE702223B468121204600F035FB3B4684
:1058F000E562CAE70126F0E73B46EAE710B5D0F8D3
:10590000B81269B1027C002AD1F8042205D04023E4
:10591000012100F02DFB002010BD4FF40073F7E7CC
:10592000022010BD002902464FF0020003D04FF0C4
:105930000000C2F8BC127047D0F8B802C0F80412D8
:1059400000207047D0F8B802C0F81022C0F8081242
:10595000002070472DE9FC4105460C460020064614
:10596000D5F8B8728DF80000ADF80400087810F092
:10597000600122D020293CD1E288B2B1000608D5CE
:10598000D5F8BC023946836860789847E288394682
:1059900027E06078394687F80002A07987F801028D
:1059A0002846E28800F06AF828E0D5F8BC02002218
:1059B000214683686078984720E0607820B10A2803
:1059C00009D00B2815D110E095F89C02032810D1BE
:1059D000022201A905E095F89C02032809D10122C1
:1059E0006946284600F064F808E095F89C02032810
:1059F00004D02146284600F036F802263046BDE89D
:105A0000FC8110B5D0F8B812A1B1D1F814220AB1B6
:105A1000012010BD0122C1F81422D1F81022026326
:105A2000B1F81032D1F8082281219BB200F039FB85
:105A3000002010BD022010BD10B5D0F8B42252686D
:105A40009047002010BD13460A46002110B500F013
:105A50008FFA002010BD13460A46002110B500F051
:105A600020FB002010BD10B58021044600F0FEFA96
:105A70002046BDE81040002100F0F8BA10B5C0F88B
:105A80005C210323C0F894321346C0F860210A4613
:105A9000002100F06DFA002010BD0521002310B593
:105AA0001A46C0F89412194600F062FA002010BDA0
:105AB00010B5C2610223C0F89432134602620A464E
:105AC000002100F0EEFA002010BD0421002310B5E3
:105AD0001A46C0F89412194600F0E3FA002010BDEF
