:020000040800F2
:1000000000000220754A0008ED0B0008EF0B000805
:10001000F10B0008F30B0008F50B000800000000CE
:10002000000000000000000000000000F70B0008C6
:10003000F90B000800000000FB0B0008FD0B000896
:10004000C54A0008C54A0008C54A0008C54A000854
:10005000C54A0008C54A0008C54A0008C54A000844
:10006000C54A0008C54A0008C54A0008C54A000834
:10007000C54A0008C54A0008C54A0008C54A000824
:10008000C54A0008C54A0008C54A0008C54A000814
:10009000C54A0008C54A0008C54A0008C54A000804
:1000A000C54A0008C54A0008C54A0008C54A0008F4
:1000B000C54A0008C54A0008C54A0008C54A0008E4
:1000C000C54A0008C54A0008C54A0008C54A0008D4
:1000D000C54A0008C54A0008C54A0008C54A0008C4
:1000E000C54A0008C54A000800000000C54A0008CB
:1000F000C54A0008C54A0008C54A0008C54A0008A4
:10010000C54A0008C54A0008C54A0008C54A000893
:10011000C54A0008C54A0008C54A0008C54A000883
:10012000C54A0008C54A0008C54A0008C54A000873
:10013000C54A0008C54A0008C54A0008C54A000863
:1001400000000000000000000000000000000000AF
:10015000C54A0008C54A0008C54A0008C54A000843
:10016000C54A0008C54A0008C54A0008C54A000833
:10017000C54A0008C54A0008C54A0008000000003A
:10018000C54A0008C54A0008C54A0008C54A000813
:10019000C54A0008C54A0008C54A0008C54A000803
:1001A000C54A0008C54A0008C54A0008C54A0008F3
:1001B000C54A0008C54A0008C54A0008C54A0008E3
:1001C000C54A0008C54A0008C54A0008C54A0008D3
:1001D000C54A0008C54A0008C54A0008C54A0008C3
:1001E000C54A0008C54A0008C54A0008C54A0008B3
:1001F000C54A0008C54A0008C54A0008C54A0008A3
:10020000C54A0008C54A0008C54A0008C54A000892
:10021000C54A0008C54A0008C54A0008C54A000882
:10022000C54A0008C54A0008C54A00080000000089
:10023000C54A0008C54A000800000000C54A000879
:10024000C54A0008C54A0008C54A0008C54A000852
:10025000C54A0008C54A0008C54A0008C54A000842
:10026000C54A0008C54A0008C54A0008C54A000832
:10027000C54A0008C54A0008C54A00080000000039
:10028000C54A0008C54A0008C54A00080000000029
:0802900000000000C54A00084F
:1002980053B94AB9002908BF00281CBF4FF0FF31E5
:1002A8004FF0FF3000F00CB8ADF1080C6DE904CE4A
:1002B80004F032FCDDF804E0DDE9022304B0704705
:1002C800704700BF10B5054C237833B9044B13B100
:1002D8000448AFF300800123237010BD10000020F4
:1002E80000000000E44D000808B5034B1BB10349AA
:1002F8000348AFF3008008BD000000001400002090
:10030800E44D000810B5CCB04C22002139A804F007
:10031800FBFB2022002131A804F0F6FBBC220021BF
:1003280002A804F0F1FB022002F0E4FB0023019391
:10033800284BDA6A22F00102DA62DB6A03F0010371
:100348000193254A936923F4404343F4804393611E
:10035800936903F440430193019B1F4B9B6913F47A
:10036800005FFAD0032339934FF4A0233A93012274
:100378003C9240233D930223429343934492182294
:10038800459246930422479248930C2349930024AC
:100398004A944B9439A800F04DFD3F233193329491
:1003A800339434943594369437943894214631A84C
:1003B80001F034F9094B029319941A941F944FF4DD
:1003C8008013239302A801F0C5FB02F0BDFB4CB0DB
:1003D80010BD00BF00040058004802580230040055
:1003E80008B502F0E1FBFFF78DFF00F00FF800F011
:1003F80059F900F085F900F0B1F900F0DDF900F0E5
:100408001BFB00F08BFBFEE7704700002DE9F04F67
:100418008FB0002409940A940B940C940D94984B73
:10042800D3F8E02042F01002C3F8E020D3F8E0202F
:1004380002F010020192019AD3F8E02042F004027F
:10044800C3F8E020D3F8E02002F004020292029AF6
:10045800D3F8E02042F02002C3F8E020D3F8E020EF
:1004680002F020020392039AD3F8E02042F08002BF
:10047800C3F8E020D3F8E02002F080020492049A46
:10048800D3F8E02042F00102C3F8E020D3F8E020DE
:1004980002F001020592059AD3F8E02042F0020228
:1004A800C3F8E020D3F8E02002F002020692069A90
:1004B800D3F8E02042F04002C3F8E020D3F8E0206F
:1004C80002F040020792079AD3F8E02042F00802AF
:1004D800C3F8E020D3F8E03003F008030893089B42
:1004E800DFF8B081224648F20601404602F0FCFAE5
:1004F800DFF8A49101221146484602F0F5FADFF828
:100508009CB1224648F20101584602F0EDFADFF8A4
:1005180090A122464DF22101504602F0E5FA594FCA
:1005280022460321384602F0DFFA224640F603410C
:10053800554802F0D9FA554E22468021304602F03D
:10054800D3FA01224FF40061304602F0CDFA0122BD
:1005580004214D4802F0C8FA01220821504602F051
:10056800C3FA48F20603099301250A950B940C94E3
:1005780009A9404602F0C6F94FF4005309930A94BA
:100588000B9409A9304602F0BDF909950A950B9418
:100598000C9409A9484602F0B5F9322309934FF0A3
:1005A8000209CDF828900B940C944FF00B08CDF865
:1005B800348009A9304602F0A5F948F201030993ED
:1005C8000A950B940C9409A9584602F09BF9062346
:1005D8000993CDF828900B940C94CDF8348009A990
:1005E800584602F08FF94DF2290309930A950B94A6
:1005F8000C9409A9504602F085F9032309930A953A
:100608000B940C9409A9384602F07CF94FF4005376
:100618000993CDF828900B940C94CDF8348009A94F
:10062800504602F06FF940F6074309930A950B9478
:100638000C9409A9144802F065F980230993144B16
:100648000A930B9409A9384602F05CF94FF4086341
:1006580009930A950B940C9409A9304602F052F9B3
:100668004FF420530993CDF828900B940C94CDF8AF
:10067800348009A9384602F045F90FB0BDE8F08F7B
:100688000044025800180258000C0258000802588A
:1006980000001111001002580014025800000258FE
:1006A8000004025808B51448144B03604FF4800343
:1006B8004360002383600F22C26003614FF08072A1
:1006C80042614FF0806282614FF08042C2610362F2
:1006D80043628362C36242638363C36303644364A4
:1006E8008364C36403654365836500F0FBFA00B95E
:1006F80008BDFFF789FEFBE7C40100200030014078
:1007080008B51448144B03604FF48003436000237A
:1007180083600F22C2604FF00072026143614FF0A4
:10072800806282614FF08042C261036243628362E9
:10073800C36242638363C363036443648364C364BF
:1007480003654365836500F0CDFA00B908BDFFF77E
:100758005BFEFBE7B4000020003C004008B51448ED
:10076800144B03604FF480034360002383600F221F
:10077800C2604FF00072026143614FF08062826193
:100788004FF08042C261036243628362C362426384
:100798008363C363036443648364C3640365436519
:1007A800836500F09FFA00B908BDFFF72DFEFBE74F
:1007B8003C0100200034014008B51448144B036084
:1007C8004FF480034360002383600F22C2600361FB
:1007D8004FF0807242614FF0806282614FF0804238
:1007E800C261036243628362C36242638363C36319
:1007F800036443648364C36403654365836500F0ED
:1008080071FA00B908BDFFF7FFFDFBE72C000020D7
:1008180000500140F0B58FB0002309930A930B9361
:100828000C930D9303687A4A93420CD0794A934209
:100838003BD0794A934200F08380784A934200F093
:10084800B3800FB0F0BD764BD3F8F02042F480525D
:10085800C3F8F020D3F8F02002F480520092009AF6
:10086800D3F8E02042F00102C3F8E020D3F8E030EA
:1008780003F001030193019B2023099302250A95A4
:100888000B9500240C9405270D97664E09A9304650
:1008980002F038F8C02309930A950B940C940D972D
:1008A80009A9304602F02EF8CBE75D4BD3F8E820D3
:1008B80042F40042C3F8E820D3F8E82002F40042EA
:1008C8000292029AD3F8E02042F00402C3F8E02032
:1008D800D3F8E02002F004020392039AD3F8E02050
:1008E80042F00202C3F8E020D3F8E03003F002033C
:1008F8000493049B4FF48063099302260A9601230C
:100908000B9300240C9406250D95474F09A93846EA
:1009180001F0F8FF4FF4805309930A960B940C9456
:100928000D9509A9384601F0EDFF102309930A96A1
:100938000B940C940D9509A93C4801F0E3FF80E75E
:10094800374BD3F8F02042F40052C3F8F020D3F824
:10095800F02002F400520592059AD3F8E02042F004
:100968001002C3F8E020D3F8E03003F01003069338
:10097800069B6023099302270A9700240B940C9482
:1009880005260D962A4D09A9284601F0BBFF4FF40C
:10099800805309930A9701230B930C940D9609A988
:1009A800284601F0AFFF4CE71D4BD3F8F02042F486
:1009B8008012C3F8F020D3F8F02002F480120792D6
:1009C800079AD3F8E02042F02002C3F8E020D3F8D9
:1009D800E03003F020030893089B80230993022545
:1009E8000A950B9500240C9405270D97114E09A91B
:1009F800304601F087FF4FF4407309930A950B9432
:100A08000C940D9709A9304601F07CFF19E700BF47
:100A180000300140003C00400034014000500140DB
:100A28000044025800000258000802580004025806
:100A3800001002580014025808B51748174B0360F5
:100A48004FF4E133436000238360C36003610C22E9
:100A580042618361C36103624362836203F0C0FC45
:100A680070B900210C4803F046FD60B900210A481E
:100A780003F066FD50B9084803F01EFD48B908BDEB
:100A8800FFF7C2FCEDE7FFF7BFFCEFE7FFF7BCFCA1
:100A9800F1E7FFF7B9FCF2E74C02002000480040FC
:100AA80000B589B000230393049305930693079335
:100AB8000268174B9A4202D009B05DF804FB154B47
:100AC800D3F8E82042F48022C3F8E820D3F8E820DD
:100AD80002F480220192019AD3F8E02042F0080241
:100AE800C3F8E020D3F8E03003F008030293029B38
:100AF8004FF4407303930223049300230593069352
:100B08000723079303A9044801F0FCFED4E700BFBC
:100B18000048004000440258000C025808B50C4830
:100B28000C4B0360092343600222C2600023036167
:100B380082610122C261036243628262C26203630C
:100B480003F023FD00B908BDFFF75EFCFBE700BF1B
:100B5800D80200200000084070B588B00023039335
:100B6800049305930693079302681B4B9A4201D09E
:100B780008B070BD194CD4F8E03043F00103C4F854
:100B8800E030D4F8E03003F001030193019B4FF407
:100B9800C8530393022304930025059506950A2359
:100BA80007930F4E03A9304601F0ACFE4FF40073D3
:100BB80003930495059503A9304601F0A3FED4F8E4
:100BC800D83043F00063C4F8D830D4F8D83003F0F4
:100BD80000630293029BCBE70000084000440258E0
:100BE800000002587047FEE7FEE7FEE7FEE77047A1
:100BF8007047704708B502F005F808BD82B0074B8A
:100C0800D3F8F42042F00202C3F8F420D3F8F43009
:100C180003F002030193019B02B07047004402589D
:100C28000649CB6823F4E0631B041B0C000200F4A4
:100C3800E0600343024A1A43CA60704700ED00E0CF
:100C48000000FA0530B4154BDB68C3F30223C3F187
:100C58000704042C28BF04241D1D062D14D9033BAA
:100C68004FF0FF3505FA04F421EA0401994005FA2A
:100C780003F322EA03031943002807DB0901C9B279
:100C8800074B195430BC70470023E9E700F00F0008
:100C98000901C9B2034B1954F4E700BF00ED00E0A5
:100CA80000E400E014ED00E00138B0F1807F0AD2E2
:100CB800064B5860064AF02182F8231000209860FD
:100CC80007221A6070470120704700BF10E000E05B
:100CD80000ED00E0C36B5B09C0680830C00803FB87
:100CE80000007047002800F0978070B50446002384
:100CF800836205684C4B4D4E9D4218BFB54214BFE8
:100D08000126002607D0A3F574439D4203D0C3688B
:100D18000F2B00F283802046FFF7DCFF26B1444BFF
:100D28009D4201D008287BD83F4A404B9D4218BFBE
:100D3800954203D003F580639D4201D1102871D8F4
:100D480094F88130002B54D0022384F88130226833
:100D5800136823F001031360A369B3F1806F4ED0C9
:100D6800E369A26A1343E26B1343E16822680B4309
:100D78009360636B626A1343A26B1343A2691343C4
:100D88002269134362691343226A13436268134357
:100D9800E26C1343A2681343A26C1343A16D22684B
:100DA8000B43D36063686BB92268936823F4C0531C
:100DB80043F4006393602268936823F4C06343F4A8
:100DC800806393602268136D23F0010313656368E1
:100DD80013F4800F06D02268D36823F00043616DB6
:100DE8000B43D3600020C4F88400012384F88130C9
:100DF80070BD84F880302046FFF70CFDA4E76368D7
:100E0800B3F5800FACD1A36B002BA9D1226813686E
:100E180043F480531360A3E7012070470120E7E7FC
:100E28000120E5E70120E3E70030014000380040F9
:100E3800003C0040002800F0DC8238B50446036816
:100E480013F0010F25D0A94A136903F03803926AF9
:100E5800102B15D0182B0FD06368B3F5803F3ED008
:100E6800002B52D1A14B1A6822F480321A601A68FA
:100E780022F480221A6037E002F00302022AEBD142
:100E88009A4B1B6813F4003F03D06368002B00F0F3
:100E9800B282236813F0020F77D0944A1369926ADA
:100EA80013F038035AD0182B55D0E368002B00F004
:100EB800B2808E490A6822F0190213430B6001F0D0
:100EC800ADFE0546894B1B6813F0040F40F08B807C
:100ED80001F0A4FE401B0228F4D9032092E2834AC1
:100EE800136843F48033136063682BB301F096FEF4
:100EF80005467E4B1B6813F4003FCAD101F08EFEF5
:100F0800401B6428F5D903207CE2B3F5A02F09D053
:100F1800764B1A6822F480321A601A6822F480220A
:100F28001A60E1E7714B1A6842F480221A601A6865
:100F380042F480321A60D7E701F070FE05466B4B29
:100F48001B6813F4003FA4D001F068FE401B64281E
:100F5800F5D9032056E212F0030FA6D1634B1B68A4
:100F680013F0040F03D0E368002B00F0468201F071
:100F78006FFE41F2030398422CD85C4A536823F46D
:100F88007C33216943EA01335360236813F0100F5F
:100F980070D0564A136903F03803926A082B52D06E
:100FA800182B4CD0E369002B00F0A2804F4A13683D
:100FB80043F08003136001F031FE05464B4B1B687C
:100FC80013F4807F7AD101F029FE401B0228F5D95D
:100FD800032017E2454A536823F0FE43216943EA98
:100FE80001635360D1E701F033FE41F203039842F5
:100FF80008D83E4A536823F47C33216943EA013315
:101008005360C2E7394A536823F0FE43216943EA33
:1010180001635360B9E7354A136823F0010313608D
:1010280001F0FCFD0546314B1B6813F0040FACD0F2
:1010380001F0F4FD401B0228F5D90320E2E102F09B
:101048000302012AAED1294B1B6813F4807F03D019
:10105800E369802B40F0D38101F0FAFD41F20303EC
:10106800984222D8214A536823F0F843216A43EA78
:1010780081635360236813F0080F61D06369002B04
:101088004AD01A4A536F43F00103536701F0C6FD73
:101098000546164B5B6F13F0020F51D101F0BEFDF0
:1010A800401B0228F5D90320ACE1104AD36823F08D
:1010B8007C53216A43EA0163D360DBE701F0C8FD92
:1010C80041F20303984208D8084A536823F0F843CA
:1010D800216A43EA81635360CCE7044AD36823F06A
:1010E8007C53216A43EA0163D360C3E70044025892
:1010F800A74A136823F08003136001F08FFD0546AB
:10110800A34B1B6813F4807FB4D001F087FD401B0C
:101118000228F5D9032075E19D4A536F23F0010396
:10112800536701F07BFD0546994B5B6F13F0020F87
:1011380006D001F073FD401B0228F5D9032061E1B8
:10114800236813F0200F29D0A3699BB1904A136834
:1011580043F48053136001F061FD05468C4B1B6816
:1011680013F4005F1AD101F059FD401B0228F5D98C
:10117800032047E1864A136823F48053136001F083
:101188004DFD0546824B1B6813F4005F06D001F045
:1011980045FD401B0228F5D9032033E1236813F0ED
:1011A800040F21D1636A002B00F02B81784A126961
:1011B80002F03802182A00F0F380022B75D0744A26
:1011C800136823F08073136001F028FD0446704B08
:1011D8001B6813F0007F00F0D88001F01FFD001B92
:1011E8000228F4D903200DE16A4A136843F4807396
:1011F800136001F013FD0546664B1B6813F4807FEE
:1012080006D101F00BFD401B6428F5D90320F9E055
:10121800A368012B0AD00BBB5D4B1A6F22F00102A9
:101228001A671A6F22F004021A6704E0584A136F0B
:1012380043F001031367A36833B301F0EFFC0546DD
:10124800534B1B6F13F0020FACD101F0E7FC401BAE
:1012580041F288339842F3D90320D3E0052B09D013
:101268004B4B1A6F22F001021A671A6F22F0040220
:101278001A67E0E7464B1A6F42F004021A671A6FC2
:1012880042F001021A67D6E701F0C8FC0546404B58
:101298001B6F13F0020F85D001F0C0FC401B41F218
:1012A80088339842F3D90320ACE0394A136823F015
:1012B8008073136001F0B2FC0546354B1B6813F0D0
:1012C800007F06D001F0AAFC401B0228F5D90320B4
:1012D80098E02F4B996A304A0A40A16AE06A41EACD
:1012E80000110A439A62226B013AC2F30802616B49
:1012F8000139490289B20A43A16B0139090401F491
:10130800FE010A43E16B0139090601F0FE410A4377
:101318001A63DA6A22F00102DA62596B1F4A0A403C
:10132800A16C42EAC1025A63DA6A22F00C02216C0B
:101338000A43DA62DA6A22F00202616C0A43DA626C
:10134800DA6A42F48032DA62DA6A42F40032DA6245
:10135800DA6A42F48022DA62DA6A42F00102DA6278
:101368001A6842F080721A6001F058FC0446084B73
:101378001B6813F0007F06D101F050FC001B022807
:10138800F5D903203EE000203CE000203AE000BF11
:1013980000440258004802580CFCFFFF0700FFFFFA
:1013A800204A916A106B012B2DD001F00303A26A29
:1013B80093422AD1C1F30511E36A994227D1C0F3B8
:1013C8000802236B013B9A4223D1C0F34622636B88
:1013D800013B9A421FD1C0F30642A36B013B9A42DC
:1013E8001BD1C0F30660E36B013B984217D1002084
:1013F80008E001207047012004E0012002E00120FC
:1014080000E0002038BD0120FCE70120FAE70120B8
:10141800F8E70120F6E70120F4E70120F2E70120D0
:10142800F0E700BF00440258744B1B6903F038030F
:10143800102B00F0DF80182B10D00BB170487047CC
:101448006E4B1B6813F0200F00F0D6806B4B1868AA
:10145800C0F3C1006B4B23FA00F0704710B4674A21
:10146800916A01F00301946AC4F30510D36A03F08A
:101478000103526BC2F3CC0203FB02F307EE903A6E
:10148800F8EE677A14F47C7F00F09480012966D026
:10149800022900F09280E1B107EE100AF8EE476ADF
:1014A8009FED596A86EE267A544B1B6BC3F30803EB
:1014B80006EE903AF8EE666A9FED546A67EE867A11
:1014C80076EEA77AF7EE006A77EEA67A27EE277A05
:1014D80061E04A4B1B6813F0200F23D047490A6884
:1014E800C2F3C102474BD34007EE103AF8EE476A01
:1014F80007EE100AB8EE476A86EE867A0B6BC3F3DE
:10150800080306EE903AF8EE666A9FED406A67EEC9
:10151800867A76EEA77AF7EE006A77EEA67A27EE55
:10152800277A38E007EE100AF8EE476A9FED386A26
:1015380086EE267A314B1B6BC3F3080306EE903A0E
:10154800F8EE666A9FED316A67EE867A76EEA77ADC
:10155800F7EE006A77EEA67A27EE277A1BE007EE09
:10156800100AF8EE476A9FED286A86EE267A234B22
:101578001B6BC3F3080306EE903AF8EE666A9FED1C
:10158800236A67EE867A76EEA77AF7EE006A77EE38
:10159800A67A27EE277A194B1B6BC3F34623013330
:1015A80007EE903AF8EE677AC7EE276AFCEEE67A1D
:1015B80017EE900A5DF8044B704707EE100AF8EE34
:1015C800476A9FED146A86EE267A0C4B1B6BC3F3B1
:1015D800080306EE903AF8EE666A9FED0C6A67EE2D
:1015E800867A76EEA77AF7EE006A77EEA67A27EE85
:1015F800277AD0E7084870470248704700440258E5
:1016080000093D000090D0030024744A000000390E
:101618000024744C0024F44A00127A00002800F0D8
:10162800328170B50D4604469B4B1B6803F00F03CF
:101638008B420BD2984A136823F00F030B431360B5
:10164800136803F00F038B4240F01F81236813F0E7
:10165800040F0CD02269914B9B6903F070039A42E6
:1016680005D98E498B6923F070031A438A61236870
:1016780013F0080F0CD06269884BDB6903F0700324
:101688009A4205D98549CB6923F070031A43CA6188
:10169800236813F0100F0CD0A269804BDB6903F4A8
:1016A800E0639A4205D97D49CB6923F4E0631A4384
:1016B800CA61236813F0200F0CD0E269774B1B6ACC
:1016C80003F070039A4205D974490B6A23F070033A
:1016D8001A430A62236813F0020F0CD0E2686F4BBA
:1016E8009B6903F00F039A4205D96C498B6923F073
:1016F8000F031A438A61236813F0010F41D0674A28
:10170800936923F47063A1680B4393616368022BA8
:101718000AD0032B27D0012B2CD0604A126812F074
:10172800040F06D10120ADE0126812F4003F00F06A
:10173800AE805A490A6922F0070213430B6101F08F
:101748006DFA0646554B1B6903F038036268B3EB24
:10175800C20F16D001F062FA801B41F2883398421A
:10176800F0D903208EE04D4A126812F0007FE0D1D4
:10177800012087E0494A126812F4807FD9D10120FC
:1017880080E0236813F0020F0CD0E268434B9B699A
:1017980003F00F039A4205D240498B6923F00F03E7
:1017A8001A438A613C4B1B6803F00F03AB420AD90A
:1017B800394A136823F00F032B431360136803F0AF
:1017C8000F03AB4265D1236813F0040F0CD02269D4
:1017D800324B9B6903F070039A4205D22F498B69FB
:1017E80023F070031A438A61236813F0080F0CD0A2
:1017F80062692A4BDB6903F070039A4205D22749D4
:10180800CB6923F070031A43CA61236813F0100FE1
:101818000CD0A269214BDB6903F4E0639A4205D23C
:101828001E49CB6923F4E0631A43CA61236813F0A5
:10183800200F0CD0E269194B1B6A03F070039A421F
:1018480005D216490B6A23F070031A430A62FFF7A0
:10185800EBFD12498B69C3F30323114AD35C03F0F0
:101868001F03D8408B6903F00F03D35C03F01F03F9
:1018780020FA03F30B4A13600B4B18600B4B1868E4
:1018880001F06AF970BD012070470120FAE70120D4
:10189800F8E70120F6E700BF002000520044025894
:1018A800104E00080C000020080000200400002052
:1018B80008B5FFF7B9FD0B4A9369C3F303230A4937
:1018C800CB5C03F01F0320FA03F3926902F00F02C6
:1018D800885C00F01F0023FA00F0044A1060044AF4
:1018E800136008BD00440258104E00080C00002088
:1018F8000800002008B5FFF7DBFF054BDB69C3F3E1
:101908000213044AD35C03F01F03D84008BD00BF8C
:1019180000440258104E000808B5FFF7C9FF054BF0
:10192800DB69C3F30223044AD35C03F01F03D840E6
:1019380008BD00BF00440258104E0008404B9B6A87
:1019480003F00303032B79D070B505460E463C4AD5
:10195800136823F08063136001F060F90446384B84
:101968001B6813F0006F06D001F058F9031B022B17
:10197800F5D9032070BD324B9A6A22F47C3229686B
:1019880042EA01329A626A68013AC2F30802A96817
:101998000139490289B20A43E9680139090401F4A5
:1019A800FE010A4329690139090601F0FE410A438B
:1019B8009A63DA6A22F0C00269690A43DA62DA6A6B
:1019C80022F02002A9690A43DA62DA6A22F01002D8
:1019D800DA62D96B1B4A0A40E96942EAC102DA6352
:1019E800DA6A42F01002DA62C6B91A46DB6A43F4D0
:1019F8000023D362124A136843F08063136001F036
:101A08000DF904460E4B1B6813F0006F14D101F05A
:101A180005F9001B0228F5D90320ABE7012E05D0F4
:101A2800074AD36A43F40013D362E3E7044AD36A4C
:101A380043F48013D362DDE700209BE70120704761
:101A4800004402580700FFFF404B9B6A03F0030362
:101A5800032B79D070B505460E463C4A136823F02F
:101A68008053136001F0DAF80446384B1B6813F012
:101A7800005F06D001F0D2F8031B022BF5D9032032
:101A880070BD324B9A6A22F07C72296842EA015290
:101A98009A626A68013AC2F30802A96801394902E0
:101AA80089B20A43E9680139090401F4FE010A43CD
:101AB80029690139090601F0FE410A431A64DA6A04
:101AC80022F4406269690A43DA62DA6A22F400722F
:101AD800A9690A43DA62DA6A22F48072DA62596C16
:101AE8001B4A0A40E96942EAC1025A64DA6A42F4C6
:101AF8008072DA62C6B91A46DB6A43F48003D3629D
:101B0800124A136843F08053136001F087F80446C3
:101B18000E4B1B6813F0005F14D101F07FF8001B17
:101B28000228F5D90320ABE7012E05D0074AD36A6E
:101B380043F08073D362E3E7044AD36A43F40003B3
:101B4800D362DDE700209BE701207047004402587C
:101B58000700FFFFF8B50446036813F0006F30D0A4
:101B6800436EB3F5001F26D00ED8EBB1B3F5801F36
:101B780007D102210430FFF7E1FE054645B12E46A4
:101B880021E0012635461EE0B3F5401F09D10025A6
:101B9800964A136D23F44013616E0B4313650026B8
:101BA80011E0012635460EE0904AD36A43F400332B
:101BB800D3620025ECE702212430FFF745FF0546F4
:101BC800DCE700263546236813F4807F14D0636D64
:101BD800042B30D8DFE803F0032228080800834AE2
:101BE800D36A43F40033D36245BB804A136D23F0B4
:101BF8000703616D0B431365236813F4007F2FD02F
:101C0800A36D802B4AD01ED8002B41D0402B17D172
:101C18000021201DFFF792FE054619E00021201D36
:101C2800FFF78CFE0546DFE7002104F12400FFF7EB
:101C38000BFF0546D8E701263546DDE72E46DBE7EC
:101C4800012635460CE0C02B02D0B3F5807F1CD1AD
:101C58005DBB664A136D23F4E073A16D0B431365F6
:101C6800236813F4806F34D0D4F8A430B3F5800F10
:101C78004DD01FD8002B44D0B3F5001F17D1002139
:101C8800201DFFF75BFE05461AE001263546E7E70B
:101C9800564AD36A43F40033D362D9E7002104F1EA
:101CA8002400FFF7D1FE0546D2E72E46D8E70126E5
:101CB80035460EE0B3F5C00F02D0B3F5000F1DD1C5
:101CC80065BB4A4A936D23F46003D4F8A4100B4310
:101CD8009365236813F4006F35D0D4F8A830B3F1B6
:101CE800007F53D01FD8002B4AD0B3F1807F17D183
:101CF8000021201DFFF722FE05461AE00126354681
:101D0800E7E73A4AD36A43F40033D362D8E70021BD
:101D180004F12400FFF798FE0546D1E72E46D8E7E0
:101D2800012635460FE0B3F1407F02D0B3F1806F52
:101D380023D1002D31D12D4A936D23F0E063D4F8DF
:101D4800A8100B439365236813F0007F2ED0A36C73
:101D5800202B3FD026D833B1102B20D1234AD36A69
:101D680043F40033D362002D3AD1204AD36C23F0D8
:101D78003003A16C0B43D36418E001263546E2E733
:101D88001A4AD36A43F40033D362D2E7002104F13C
:101D98002400FFF759FE0546CBE72E46D3E7012678
:101DA800354603E0302BDED001263546236813F490
:101DB800805F2CD0E36DB3F5005F4DD018D8002BB1
:101DC80044D0B3F5805F0DD10021201DFFF7B6FD8B
:101DD800054613E00221201DFFF7B0FD0546C2E7C6
:101DE8002E46E3E70126354611E000BF00440258BD
:101DF800B3F5405F02D0B3F5804F24D1002D32D126
:101E0800984A136D23F4E043E16D0B43136523688F
:101E180013F4005F37D0236EB3F5003F51D027D8B5
:101E28003BB1B3F5803F20D10121201DFFF786FD8E
:101E38000546002D4CD18B4A136D23F4E023216E07
:101E48000B4313651FE001263546E0E7854AD36A50
:101E580043F40033D362D1E7002104F12400FFF7F3
:101E6800F3FD0546CAE72E46D1E7012635460AE0C6
:101E7800B3F5802FDDD0B3F5A02FDAD0B3F5403F0E
:101E8800D7D001263546236813F4804F30D0D4F8D4
:101E9800AC30B3F1005F44D01FD83BB1B3F1805FE1
:101EA80018D10121201DFFF749FD0546002D3FD11E
:101EB8006C4A936D23F0E043D4F8AC100B43936560
:101EC80016E0012104F12400FFF7BEFD0546B0E746
:101ED8002E46D8E7012635460AE0B3F1804FE5D013
:101EE800B3F1A04FE2D0B3F1405FDFD00126354611
:101EF800236813F4004F09D0E36EB3F1805F19D063
:101F0800B3F1005F24D0D3B101263546236813F01E
:101F1800807F3DD0636C032B36D8DFE803F02621A1
:101F28002F26012104F12400FFF78EFD0546BDE7A9
:101F38002E46DDE74B4AD36A43F40033D3626DB9CA
:101F4800484A136D23F04053E16E0B431365DDE7F8
:101F58000121201DFFF7F2FC0546F0E72E46D5E7E4
:101F6800404AD36A43F40033D36285B93D4AD36CFF
:101F780023F00303616C0B43D36409E00221201DA5
:101F8800FFF7DCFC0546F0E70126354600E02E4663
:101F9800236813F4800F1FD1236813F0010F00F09A
:101FA8009B80A36F282B00F29580DFE803F08393D2
:101FB8009393939393937E939393939393938C9305
:101FC80093939393939383939393939393938393F9
:101FD8009393939393938300234A136843F48073F2
:101FE800136000F01BFE07461F4B1B6813F4807F2D
:101FF80005D100F013FEC01B6428F5D90325002D78
:102008004FD1184B1B6FD4F8B020534013F4407FC6
:102018000CD0144B1A6F22F44072196F41F48031BE
:102028001967196F21F4803119671A67D4F8B0302D
:10203800B3F5807F1AD0002D35D1D4F8B03003F431
:102048004072B2F5407F22D0064A136923F47C53CC
:10205800136104490B6FD4F8B020C2F30B02134389
:102068000B6799E7004402580048025800F0D6FD73
:102078000746874B1B6F13F0020FDCD100F0CEFD33
:10208800C01B41F288339842F3D90325D3E780482F
:10209800026922F47C527F4901EA13131343036156
:1020A800D7E72E4678E72E4676E70121201DFFF771
:1020B80045FC0546E5B9764A536D23F03803A16F10
:1020C8000B43536508E0012104F12400FFF7BCFC31
:1020D8000546EFE701263546236813F0020F22D0A4
:1020E800636F052B1BD8DFE803F00A05130A0A0AF9
:1020F8002E46F1E70121201DFFF720FC05468DB98A
:10210800634A536D23F00703616F0B4353650AE07D
:10211800012104F12400FFF797FC0546EFE70126AB
:10212800354600E02E46236813F0040F22D0D4F879
:102138009030052B1AD8DFE803F0080312080808C6
:102148000121201DFFF7FAFB054695B9504A936D0A
:1021580023F00703D4F890100B4393650AE001219C
:1021680004F12400FFF770FC0546EEE7012635462A
:1021780000E02E46236813F0200F27D0D4F88C30C7
:10218800B3F1005F40D016D83BB1B3F1805F0FD1F7
:102198000021201DFFF7D2FB0546002D3BD13C4A0C
:1021A800536D23F0E043D4F88C100B4353650DE0D6
:1021B800012635460AE0B3F1804FEED0B3F1A04FC7
:1021C800EBD0B3F1405FE8D001263546236813F021
:1021D800400F30D0D4F89830B3F5006F4BD01FD8EB
:1021E8003BB1B3F5806F18D10021201DFFF7A6FB86
:1021F8000546002D46D1264A936D23F4E053D4F8C2
:1022080098100B43936516E0022104F12400FFF7B0
:102218001BFC0546C1E72E46D8E7012635460AE0ED
:10222800B3F5805FE5D0B3F5A05FE2D0B3F5406FBA
:10223800DFD001263546236813F0800F37D0D4F855
:102248009C30B3F5804F00F0A28025D83BB1B3F5A0
:10225800005F19D10021201DFFF770FB0546002DF6
:1022680040F09C800A4A936D23F46043D4F89C1094
:102278000B4393651BE0022104F12400FFF7E4FB04
:102288000546B6E72E46D6E7012635460FE000BFDD
:1022980000440258CFFFFF00B3F5004FDFD0B3F57D
:1022A800204FDCD0B3F5C04FD9D00126354623687E
:1022B80013F0080F0CD0D4F88030B3F5805F6FD0DE
:1022C800884A536D23F44053D4F880100B43536568
:1022D800236813F0100F0CD0D4F89430B3F5807F36
:1022E80067D0804A936D23F44073D4F894100B435D
:1022F8009365236813F4002F0BD0D4F8A030B3F5FE
:10230800803F6ED0B3F5003F61D0002B5AD0012634
:102318003546236813F4802F0CD0D4F88430B3F5F5
:10232800001F76D0B3F5401F69D0B3F5801F61D088
:1023380001263546236813F4803F07D0E36C002B51
:1023480070D0B3F5803F7BD001263546236813F063
:10235800005F7DD1236813F4003F00F08680E36FAF
:10236800B3F5807F00F0AE807CD9B3F5007F03D051
:10237800B3F5407F40F0A480002D40F0A980594A71
:10238800536D23F44073E16F0B4353656DE00221F5
:1023980004F12400FFF758FB054660E72E4686E760
:1023A800022104F12400FFF74FFB002888D0012602
:1023B80086E7022104F12400FFF746FB002890D0AD
:1023C80001268EE70021201DFFF7B8FA05467DB9E2
:1023D800444A936D23F44033D4F8A0100B4393651B
:1023E80097E7022104F12400FFF72EFB0546EEE7EC
:1023F8002E468EE73B4AD36A43F40033D3627DB955
:10240800384A536D23F44013D4F884100B435365B2
:1024180090E7012104F12400FFF716FB0546EEE7DB
:102428002E4687E72F4AD36A43F40033D3626DB947
:102438002C4AD36C23F48033E16C0B43D36485E7D7
:102448000221201DFFF77AFA0546F0E72E467DE7C0
:10245800022104F12400FFF7F7FA00283FF47AAFCD
:10246800012677E7002B87D00126236813F4801F05
:1024780006D01C4A136D23F00043216F0B431365EC
:10248800236813F4001F06D0164A136D23F08073D7
:10249800A16E0B431365236813F0804F09D0114BCD
:1024A8001A6922F400421A611A69D4F8B8100A436A
:1024B8001A612368002B0DDB06B101263046F8BDF2
:1024C8000126D2E7074AD36A43F40033D36253E7BD
:1024D8002E46CAE7034AD36C23F04053216D0B43C1
:1024E800D364E9E70044025808B5FFF7E1F9054B62
:1024F8001B6AC3F30213044AD35C03F01F03D840DA
:1025080008BD00BF00440258104E000830B4784A95
:10251800916A946AC4F30535D36AC3F30013D26B86
:10252800C2F3CC0203FB02F314F47C3F00F0DA8020
:1025380001F0030107EE903AF8EE677A012966D0B8
:10254800022900F0B280E1B107EE105AB8EE477ADE
:102558009FED686AC6EE076A654B9B6BC3F3080379
:1025680007EE103AB8EE477A9FED636A67EE867A0F
:1025780077EE277AB7EE007A77EE877A66EEA76A63
:1025880061E05B4B1B6813F0200F23D058490A68A1
:10259800C2F3C102594BD34007EE103AB8EE477A5E
:1025A80006EE905AB8EE666AC7EE066A8B6BC3F3FE
:1025B800080307EE103AB8EE477A9FED4F6A67EEC8
:1025C800867A77EE277AB7EE007A77EE877A66EE24
:1025D800A76A38E007EE105AB8EE477A9FED486AC6
:1025E800C6EE076A424B9B6BC3F3080307EE103A2B
:1025F800B8EE477A9FED406A67EE867A77EE277ADB
:10260800B7EE007A77EE877A66EEA76A1BE007EEE8
:10261800105AB8EE477A9FED376AC6EE076A344B10
:102628009B6BC3F3080307EE103AB8EE477A9FEDA9
:10263800326A67EE867A77EE277AB7EE007A77EE17
:10264800877A66EEA76A2A4A936BC3F3462307EE96
:10265800103AB8EE477AB7EE006A37EE067AC6EE59
:10266800877AFCEEE77AC0ED007A936BC3F30643F2
:1026780007EE103AB8EE477A37EE067AC6EE877A52
:10268800FCEEE77AC0ED017A936BC3F3066307EEBD
:10269800903AF8EE677A77EE867A86EEA77ABCEEFD
:1026A800C77A80ED027A30BC704707EE105AB8EE50
:1026B800477A9FED146AC6EE076A0D4B9B6BC3F30E
:1026C800080307EE103AB8EE477A9FED0B6A67EEFB
:1026D800867A77EE277AB7EE007A77EE877A66EE13
:1026E800A76AB0E70023036043608360DBE700BFAD
:1026F800004402580024744A000000390090D003B6
:102708000024744C0024F44A30B4784A916A946ADC
:10271800C4F30555D36AC3F30023526CC2F3CC0249
:1027280003FB02F314F07C7F00F0DA8001F0030170
:1027380007EE903AF8EE677A012966D0022900F090
:10274800B280E1B107EE105AB8EE477A9FED686A99
:10275800C6EE076A654B1B6CC3F3080307EE103A15
:10276800B8EE477A9FED636A67EE867A77EE277A46
:10277800B7EE007A77EE877A66EEA76A61E05B4B80
:102788001B6813F0200F23D058490A68C2F3C1020E
:10279800594BD34007EE103AB8EE477A06EE905AF6
:1027A800B8EE666AC7EE066A0B6CC3F3080307EE59
:1027B800103AB8EE477A9FED4F6A67EE867A77EE61
:1027C800277AB7EE007A77EE877A66EEA76A38E05E
:1027D80007EE105AB8EE477A9FED486AC6EE076AC8
:1027E800424B1B6CC3F3080307EE103AB8EE477A66
:1027F8009FED406A67EE867A77EE277AB7EE007A21
:1028080077EE877A66EEA76A1BE007EE105AB8EEF5
:10281800477A9FED376AC6EE076A344B1B6CC3F3E1
:10282800080307EE103AB8EE477A9FED326A67EE72
:10283800867A77EE277AB7EE007A77EE877A66EEB1
:10284800A76A2A4A136CC3F3462307EE103AB8EE78
:10285800477AB7EE006A37EE067AC6EE877AFCEE5C
:10286800E77AC0ED007A136CC3F3064307EE103A1B
:10287800B8EE477A37EE067AC6EE877AFCEEE77A44
:10288800C0ED017A136CC3F3066307EE903AF8EED5
:10289800677A77EE867A86EEA77ABCEEC77A80EDFD
:1028A800027A30BC704707EE105AB8EE477A9FEDAF
:1028B800146AC6EE076A0D4B1B6CC3F3080307EED8
:1028C800103AB8EE477A9FED0B6A67EE867A77EE94
:1028D800277AB7EE007A77EE877A66EEA76AB0E7CE
:1028E8000023036043608360DBE700BF00440258B5
:1028F8000024744A000000390090D0030024744C6E
:102908000024F44AF0B583B000233AE0092400E03B
:102918000024B4403C4302356F4E46F825406F4CC6
:102928002568D44325EA02064F6817F4803F01D092
:1029380042EA0506694D2E606E6804EA06054F688E
:1029480017F4003F01D042EA0605644E75604FF067
:10295800B0452D6804EA05064F6817F4801F01D0BA
:1029680042EA05064FF0B0452E606D682C404E686F
:1029780016F4001F01D042EA05044FF0B04254603B
:1029880001330A6832FA03F400F0A38001249C4062
:102998002240F5D04D686E1E112D18BF012E01D9A9
:1029A800122D12D186685F000325BD4026EA050670
:1029B800CD68BD4035438560466826EA04064D6803
:1029C800C5F300149C4034434460C7685E00032587
:1029D800B540EC4327EA05078D68B5403D43C5601F
:1029E8004D68122D18BF022D13D1DF08083750F893
:1029F80027E003F007054FEA850C0F2505FA0CF5CB
:102A08002EEA050E0D6905FA0CF545EA0E0540F8A3
:102A18002750056825404C6804F00304B4402C4353
:102A280004604C6814F0805FAAD02D4CD4F8F450A0
:102A380045F00205C4F8F450D4F8F44004F0020458
:102A48000194019C9D08AE1C234C54F8267003F099
:102A58000304A6000F24B44027EA0407214CA0422F
:102A68003FF456AF04F58064A04222D004F5806498
:102A7800A04220D004F58064A0421ED004F58064F2
:102A8800A0421CD004F58064A0421AD004F58064EA
:102A9800A04218D004F58064A04216D004F58064E2
:102AA800A04214D004F58064A0423FF42FAF0A245A
:102AB8002FE701242DE702242BE7032429E7042428
:102AC80027E7052425E7062423E7072421E7082428
:102AD8001FE703B0F0BD00BF000400588000005895
:102AE80000440258000002580AB181617047090485
:102AF80081617047134BDB6813F0040F07D1114B4A
:102B0800DB6803F0070383421AD00120704710B531
:102B18000C4AD36823F007031843D06000F07EF80E
:102B28000446084B5B6813F4005F07D100F076F8A1
:102B3800001BB0F57A7FF4D9012000E0002010BD19
:102B48000020704700480258024AD36843F0807357
:102B5800D360704700480258104B1B780BB901200E
:102B6800704710B504464FF47A70B0FBF3F30C4A83
:102B78001068B0FBF3F0FEF797F868B90F2C01D98D
:102B880001200AE0002221464FF0FF30FEF75AF8F4
:102B9800044B1C60002000E0012010BD0000002054
:102BA800080000200400002010B50320FEF738F8C4
:102BB800FEF73AFC0F498B69C3F303230E4AD35C33
:102BC80003F01F03D8408B6903F00F03D35C03F0B5
:102BD8001F0320FA03F3094A1360094B1860002009
:102BE800FFF7BAFF10B10124204610BD0446FEF7D6
:102BF80005F8F9E700440258104E00080C000020C0
:102C080008000020034B1B78034A11680B4413602B
:102C1800704700BF00000020E0060020014B186844
:102C2800704700BFE006002038B50446FFF7F6FFFE
:102C38000546B4F1FF3F02D0044B1B781C44FFF754
:102C4800EDFF401BA042FAD338BD00BF00000020B2
:102C5800014B1868000C70470010005C2DE9F04328
:102C680087B00446016883680269134342691343C5
:102C7800C2691343426E13430868884A02401A43E4
:102C88000A602268536823F44053E1680B43536099
:102C9800A1692268824B9A4201D0236A194390683D
:102CA800804B03400B4393602268D36A23F00F03E1
:102CB800616A0B43D36223687B4A934221D07B4AE3
:102CC800934200F08C807A4A934200F0A280794ABD
:102CD800934200F0B580784A934200F0C880774A62
:102CE800934200F0F380764A934200F01881754AC7
:102CF800934200F02B816A4A934200F03E8180257E
:102D080033E0714A526D02F03802282A65D8DFE8AC
:102D180012F0290064006400640064006400640028
:102D280064004C0164006400640064006400640092
:102D380064002B00640064006400640064006400A4
:102D480064005E0064006400640064006400640061
:102D5800640060006400640064006400640064004F
:102D680064006200012500E008254D4A934200F006
:102D78002E81E369B3F5004F00F0AE85202D00F2F7
:102D8800FA87202D01F21382DFE815F02A086E0871
:102D9800110A110AAC08110A110A110AEC08110AE1
:102DA800110A110A110A110A110A110A2C09110A29
:102DB800110A110A110A110A110A110A110A110A33
:102DC800110A110A110A110A110A110AB00910256B
:102DD800CBE72025C9E74025C7E78025C5E73A4A5C
:102DE800526D02F00702052A11D8DFE812F006003A
:102DF800E00008000A000C000E000025B5E70825D1
:102E0800B3E71025B1E72025AFE74025ADE78025DA
:102E1800ABE72D4A526D02F00702052A0ED8DFE80B
:102E280002F003C80507090B00259EE708259CE763
:102E380010259AE7202598E7402596E7802594E70E
:102E4800214A526D02F00702052A0ED8DFE802F087
:102E580003B30507090B002587E7082585E7102533
:102E680083E7202581E740257FE780257DE7164A0F
:102E7800526D02F00702052A0ED8DFE802F0039E21
:102E88000507090B002570E708256EE710256CE794
:102E980020256AE7402568E7802566E7F369FFCFC4
:102EA800000C0058FFF4FF110010014000440040DE
:102EB80000480040004C0040005000400014014011
:102EC80000780040007C0040004402587A4A526D65
:102ED80002F03802282A20D8DFE802F0151F1F1F49
:102EE8001F1F1F1F711F1F1F1F1F1F1F171F1F1FA0
:102EF8001F1F1F1F191F1F1F1F1F1F1F1B1F1F1FE4
:102F08001F1F1F1F1D0001252FE708252DE710256E
:102F18002BE7202529E7402527E7802525E7664A6E
:102F2800526D02F00702052A0ED8DFE802F0034AC4
:102F38000507090B002518E7082516E7102514E7EB
:102F4800202512E7402510E780250EE75A4A526DE2
:102F580002F00702052A0ED8DFE802F0033505075C
:102F6800090B002501E70825FFE61025FDE62025C9
:102F7800FBE64025F9E68025F7E602F50E32926D6C
:102F880002F00702052A0ED8DFE802F0031F050742
:102F9800090B0225E9E60825E7E61025E5E62025E0
:102FA800E3E64025E1E68025DFE60425DDE60425A5
:102FB800DBE60425D9E60425D7E60425D5E604256D
:102FC800D3E60425D1E60425CFE60425CDE6202D59
:102FD80027D8022DC1F0EE80AB1E1E2B01F2EC802B
:102FE800DFE813F04B00EA08BB00EA08EA08EA0841
:102FF800F400EA08EA08EA08EA08EA08EA08EA0837
:103008002D01EA08EA08EA08EA08EA08EA08EA08EC
:10301800EA08EA08EA08EA08EA08EA08EA08EA0818
:10302800A301402D26D1636A002B00F0B781012B44
:1030380000F0BA81022B00F0B981032B00F0B881AF
:10304800042B00F0B781052B00F0B681062B00F0A9
:10305800B581072B00F0B481082B00F0B381092B50
:1030680000F0B2810A2B00F0B1810B2B00F09381A4
:10307800012294E1012501F0ACB8FFF735FA636A43
:10308800E3B1012B55D0022B55D0032B55D0042B7F
:1030980055D0052B55D0062B55D0072B55D0082BCE
:1030A80055D0092B55D00A2B55D00B2B01D0012315
:1030B80005E04FF4807302E0004402580123B0FB9E
:1030C800F3F3002B01F07A80666806EB46029A4219
:1030D80001F27680B3EB063F01F27480202D00F2F6
:1030E8007781022DC0F0EC83023D1E2D00F2EB83A8
:1030F800DFE815F0A401E903FE01E903E903E903A8
:103108005202E903E903E903E903E903E903E903EF
:10311800A602E903E903E903E903E903E903E9038B
:10312800E903E903E903E903E903E903E903E90337
:1031380058030223C3E70423C1E70623BFE7082394
:10314800BDE70A23BBE70C23B9E71023B7E7202321
:10315800B5E74023B3E78023B1E703A8FFF7D6F923
:10316800049B626AD2B1012A1CD0022A1CD0032A0D
:103178001CD0042A1CD0052A1CD0062A1CD0072AD9
:103188001CD0082A1CD0092A1CD00A2A1CD00B2AB9
:1031980001D0012203E04FF4807200E00122B3FB6A
:1031A800F2F38EE70222FAE70422F8E70622F6E7AE
:1031B8000822F4E70A22F2E70C22F0E71022EEE7F1
:1031C8002022ECE74022EAE78022E8E76846FFF79A
:1031D8009BFA019B626AD2B1012A1CD0022A1CD038
:1031E800032A1CD0042A1CD0052A1CD0062A1CD06D
:1031F800072A1CD0082A1CD0092A1CD00A2A1CD04D
:103208000B2A01D0012203E04FF4807200E0012272
:10321800B3FBF2F355E70222FAE70422F8E70622A5
:10322800F6E70822F4E70A22F2E70C22F0E7102278
:10323800EEE72022ECE74022EAE78022E8E7A84B05
:103248001B6813F0200F3AD0A54B1A68C2F3C102CD
:10325800A44BD340626AD2B1012A1CD0022A1CD0E6
:10326800032A1CD0042A1CD0052A1CD0062A1CD0EC
:10327800072A1CD0082A1CD0092A1CD00A2A1CD0CC
:103288000B2A01D0012203E04FF4807200E00122F2
:10329800B3FBF2F315E70222FAE70422F8E7062265
:1032A800F6E70822F4E70A22F2E70C22F0E71022F8
:1032B800EEE72022ECE74022EAE78022E8E7636AAB
:1032C800D3B1012B1DD0022B1DD0032B1DD0042BF5
:1032D8001DD0052B1DD0062B1DD0072B1DD0082B6C
:1032E8001DD0092B1DD00A2B1DD00B2B01D001227C
:1032F80003E04FF4807200E001227A4BB3FBF2F353
:10330800DFE60222F9E70422F7E70622F5E70822BA
:10331800F3E70A22F1E70C22EFE71022EDE720227B
:10332800EBE74022E9E78022E7E7636AD3B1012BA4
:103338001DD0022B1DD0032B1DD0042B1DD0052B17
:103348001DD0062B1DD0072B1DD0082B1DD0092BF7
:103358001DD00A2B1DD00B2B01D0012203E04FF406
:10336800807200E00122604BB3FBF2F3A9E602226F
:10337800F9E70422F7E70622F5E70822F3E70A222D
:10338800F1E70C22EFE71022EDE72022EBE74022DD
:10339800E9E78022E7E74FF4807200E001224FF46A
:1033A8000043B3FBF2F38CE60222F8E70422F6E7C7
:1033B8000622F4E70822F2E70A22F0E70C22EEE7F9
:1033C8001022ECE72022EAE74022E8E78022E6E73D
:1033D800402D27D1636A002B00F03C82012B00F0BE
:1033E8005182022B00F05182032B00F05182042BF2
:1033F80000F05182052B00F05182062B00F051821B
:10340800072B00F05182082B00F05182092B00F0A5
:1034180051820A2B00F051820B2B00F017820122F7
:10342800002319E201250020A0F540722F4B9A4293
:1034380000F2CA862368D86000F0CBBEFFF754F8C4
:10344800636AE3B1012B2DD0022B2ED0032B2FD092
:10345800042B30D0052B31D0062B32D0072B33D09C
:10346800082B34D0092B35D00A2B36D00B2B02D0A1
:103478000122002305E04FF48072002301E00122BD
:1034880000230021FCF704FF0F0247EA1067060239
:103498006268500800252B46301847F10001FCF7F8
:1034A800F7FEC1E702220023EBE704220023E8E746
:1034B80006220023E5E708220023E2E70A22002388
:1034C800DFE70C220023DCE710220023D9E72022C3
:1034D8000023D6E740220023D3E780220023D0E749
:1034E800004402580090D00300093D00FFFC0F0083
:1034F80003A8FFF70BF80498636AE3B1012B2DD0FA
:10350800022B2ED0032B2FD0042B30D0052B31D0FB
:10351800062B32D0072B33D0082B34D0092B35D0CB
:103528000A2B36D00B2B02D00122002305E04FF4E2
:103538008072002301E0012200230021FCF7A8FE8D
:103548000F0247EA106706026268500800252B46FA
:10355800301847F10001FCF79BFE65E702220023C3
:10356800EBE704220023E8E706220023E5E7082228
:103578000023E2E70A220023DFE70C220023DCE72E
:1035880010220023D9E720220023D6E74022002377
:10359800D3E780220023D0E76846FFF7B5F8019803
:1035A800636AE3B1012B2DD0022B2ED0032B2FD031
:1035B800042B30D0052B31D0062B32D0072B33D03B
:1035C800082B34D0092B35D00A2B36D00B2B02D040
:1035D8000122002305E04FF48072002301E001225C
:1035E80000230021FCF754FE0F0247EA1067060289
:1035F8006268500800252B46301847F10001FCF797
:1036080047FE11E702220023EBE704220023E8E744
:1036180006220023E5E708220023E2E70A22002326
:10362800DFE70C220023DCE710220023D9E7202261
:103638000023D6E740220023D3E780220023D0E7E7
:10364800A24B1B6813F0200F58D0A04B1B68C3F384
:10365800C1039F48D840636AE3B1012B30D0022BE5
:1036680031D0032B32D0042B33D0052B34D0062B8A
:1036780035D0072B36D0082B37D0092B38D00A2B5A
:1036880039D00B2B02D00122002305E04FF48072C1
:10369800002301E0012200230021FCF7F9FD4FEA95
:1036A800012949EA10694FEA0028700800253246C6
:1036B8002B4618EB000049F10001FCF7E9FDB3E6E1
:1036C80002220023E8E704220023E5E7062200237C
:1036D800E2E708220023DFE70A220023DCE70C22C6
:1036E8000023D9E710220023D6E720220023D3E7BE
:1036F80040220023D0E780220023CDE7636AE3B1AC
:10370800012B31D0022B32D0032B33D0042B34D0F1
:10371800052B35D0062B36D0072B37D0082B38D0C1
:10372800092B39D00A2B3AD00B2B02D001220023C7
:1037380005E04FF48072002301E001220023644871
:103748000021FCF7A5FD4FEA012949EA10694FEA73
:1037580000287008002532462B4618EB000049F176
:103768000001FCF795FD5FE602220023E7E704224B
:103778000023E4E706220023E1E708220023DEE72E
:103788000A220023DBE70C220023D8E710220023BB
:10379800D5E720220023D2E740220023CFE780226A
:1037A8000023CCE7636AE3B1012B31D0022B32D07E
:1037B800032B33D0042B34D0052B35D0062B36D031
:1037C800072B37D0082B38D0092B39D00A2B3AD001
:1037D8000B2B02D00122002305E04FF48072002356
:1037E80001E0012200233B480021FCF751FD4FEA8C
:1037F800012949EA10694FEA002870080025324675
:103808002B4618EB000049F10001FCF741FD0BE6DF
:1038180002220023E7E704220023E4E7062200232C
:10382800E1E708220023DEE70A220023DBE70C2277
:103838000023D8E710220023D5E720220023D2E76F
:1038480040220023CFE780220023CCE74FF4807288
:10385800002301E0012200234FF400400021FCF77F
:1038680017FD4FEA012949EA10694FEA0028700854
:10387800002532462B4618EB000049F10001FCF701
:1038880007FDD1E502220023E6E704220023E3E74F
:1038980006220023E0E708220023DDE70A220023AE
:1038A800DAE70C220023D7E710220023D4E72022EE
:1038B8000023D1E740220023CEE780220023CBE774
:1038C80001250020B0E501250020ADE5004402589F
:1038D8000090D00300093D00202D25D8202D00F2AE
:1038E8004782DFE815F05D009B0045024502DA00DB
:1038F8004502450245021B014502450245024502B3
:103908004502450245025C01450245024502450261
:103918004502450245024502450245024502450267
:10392800450245024502E201402D26D1636A002B7B
:1039380000F0FC81012B00F00782022B00F00682C8
:10394800032B00F00582042B00F00482052B00F005
:103958000382062B00F00282072B00F00182082B5D
:1039680000F00082092B00F0FF810A2B00F0FE8195
:103978000B2B00F0D8810122D9E101250023A3F106
:1039880010014FF6EF72914200F220849AB222F0B1
:103998000F02C3F3420313432268D36000F019BC3B
:1039A800FDF7A8FF636AD3B1012B23D0022B23D0E4
:1039B800032B23D0042B23D0052B23D0062B23D075
:1039C800072B23D0082B23D0092B23D00A2B23D055
:1039D8000B2B01D0012303E04FF4807300E0012397
:1039E800B0FBF3F261684B0803EB4203B3FBF1F35E
:1039F8009BB2C4E70223F3E70423F1E70623EFE7CA
:103A08000823EDE70A23EBE70C23E9E71023E7E7B0
:103A18002023E5E74023E3E78023E1E7FDF77CFF88
:103A2800636AD3B1012B24D0022B24D0032B24D0DA
:103A3800042B24D0052B24D0062B24D0072B24D0EC
:103A4800082B24D0092B24D00A2B24D00B2B01D0EF
:103A5800012303E04FF4807300E00123B0FBF3F28D
:103A680061684B0803EB4203B3FBF1F39BB20025FB
:103A780085E70223F2E70423F0E70623EEE70823AD
:103A8800ECE70A23EAE70C23E8E71023E6E720231C
:103A9800E4E74023E2E78023E0E703A8FEF736FDEA
:103AA800049B626AD2B1012A24D0022A24D0032AB4
:103AB80024D0042A24D0052A24D0062A24D0072A70
:103AC80024D0082A24D0092A24D00A2A24D00B2A50
:103AD80001D0012203E04FF4807200E00122B3FB21
:103AE800F2F261684B0803EB4203B3FBF1F39BB2BC
:103AF800002544E70222F2E70422F0E70622EEE777
:103B08000822ECE70A22EAE70C22E8E71022E6E7B7
:103B18002022E4E74022E2E78022E0E76846FEF759
:103B2800F3FD019B626AD2B1012A24D0022A24D073
:103B3800032A24D0042A24D0052A24D0062A24D0F3
:103B4800072A24D0082A24D0092A24D00A2A24D0D3
:103B58000B2A01D0012203E04FF4807200E0012219
:103B6800B3FBF2F261684B0803EB4203B3FBF1F3DA
:103B78009BB2002503E70222F2E70422F0E70622BF
:103B8800EEE70822ECE70A22EAE70C22E8E710222F
:103B9800E6E72022E4E74022E2E78022E0E7AF4BB5
:103BA8001B6813F0200F42D0AC4B1A68C2F3C10255
:103BB800AB4BD340626AD2B1012A24D0022A24D066
:103BC800032A24D0042A24D0052A24D0062A24D063
:103BD800072A24D0082A24D0092A24D00A2A24D043
:103BE8000B2A01D0012203E04FF4807200E0012289
:103BF800B3FBF2F261684B0803EB4203B3FBF1F34A
:103C08009BB20025BBE60222F2E70422F0E7062277
:103C1800EEE70822ECE70A22EAE70C22E8E710229E
:103C2800E6E72022E4E74022E2E78022E0E7636A51
:103C3800D3B1012B25D0022B25D0032B25D0042B63
:103C480025D0052B25D0062B25D0072B25D0082BD2
:103C580025D0092B25D00A2B25D00B2B01D00122EA
:103C680003E04FF4807200E001227D4BB3FBF2F2D7
:103C780061684B0803EB4203B3FBF1F39BB20025E9
:103C88007DE60222F1E70422EFE70622EDE70822AB
:103C9800EBE70A22E9E70C22E7E71022E5E7202212
:103CA800E3E74022E1E78022DFE7636AD3B1012B33
:103CB80025D0022B25D0032B25D0042B25D0052B6E
:103CC80025D0062B25D0072B25D0082B25D0092B4E
:103CD80025D00A2B25D00B2B01D0012203E04FF46D
:103CE800807200E001225F4BB3FBF2F261684B087F
:103CF80003EB4203B3FBF1F39BB200253FE602223C
:103D0800F1E70422EFE70622EDE70822EBE70A22B3
:103D1800E9E70C22E7E71022E5E72022E3E7402263
:103D2800E1E78022DFE74FF4807200E001224FF4E0
:103D38000043B3FBF2F261684B0803EB4203B3FBA9
:103D4800F1F39BB200251AE60222F0E70422EEE71F
:103D58000622ECE70822EAE70A22E8E70C22E6E76F
:103D68001022E4E72022E2E74022E0E78022DEE7B3
:103D78000125002303E6402D26D1636A002B00F0BD
:103D8800F581012B00F0FF81022B00F0FE81032B4F
:103D980000F0FD81042B00F0FC81052B00F0FB8175
:103DA800062B00F0FA81072B00F0F981082B00F0B0
:103DB800F881092B00F0F7810A2B00F0F6810B2B14
:103DC80000F0D1810122D2E101250023A3F11001E5
:103DD8004FF6EF72914200F2FB812268D360F8E15E
:103DE800FDF788FD636AD3B1012B22D0022B22D0C4
:103DF800032B22D0042B22D0052B22D0062B22D035
:103E0800072B22D0082B22D0092B22D00A2B22D014
:103E18000B2B01D0012303E04FF4807300E0012352
:103E2800B0FBF3F3626803EB5203B3FBF2F39BB20C
:103E3800CCE70223F4E70423F2E70623F0E708239C
:103E4800EEE70A23ECE70C23EAE71023E8E7202350
:103E5800E6E74023E4E78023E2E700BF0044025896
:103E68000090D00300093D00FDF756FD636AD3B109
:103E7800012B23D0022B23D0032B23D0042B23D0B8
:103E8800052B23D0062B23D0072B23D0082B23D098
:103E9800092B23D00A2B23D00B2B01D0012303E0BD
:103EA8004FF4807300E00123B0FBF3F3626803EB87
:103EB8005203B3FBF2F39BB2002587E70223F3E733
:103EC8000423F1E70623EFE70823EDE70A23EBE7EE
:103ED8000C23E9E71023E7E72023E5E74023E3E79E
:103EE8008023E1E703A8FEF711FB049B626AD2B1C5
:103EF800012A23D0022A23D0032A23D0042A23D03C
:103F0800052A23D0062A23D0072A23D0082A23D01B
:103F1800092A23D00A2A23D00B2A01D0012203E040
:103F28004FF4807200E00122B3FBF2F3626803EB06
:103F38005203B3FBF2F39BB2002547E70222F3E7F3
:103F48000422F1E70622EFE70822EDE70A22EBE771
:103F58000C22E9E71022E7E72022E5E74022E3E721
:103F68008022E1E76846FEF7CFFB019B626AD2B187
:103F7800012A23D0022A23D0032A23D0042A23D0BB
:103F8800052A23D0062A23D0072A23D0082A23D09B
:103F9800092A23D00A2A23D00B2A01D0012203E0C0
:103FA8004FF4807200E00122B3FBF2F3626803EB86
:103FB8005203B3FBF2F39BB2002507E70222F3E7B3
:103FC8000422F1E70622EFE70822EDE70A22EBE7F1
:103FD8000C22E9E71022E7E72022E5E74022E3E7A1
:103FE8008022E1E7814B1B6813F0200F41D07F4B03
:103FF8001A68C2F3C1027E4BD340626AD2B1012A69
:1040080023D0022A23D0032A23D0042A23D0052A26
:1040180023D0062A23D0072A23D0082A23D0092A06
:1040280023D00A2A23D00B2A01D0012203E04FF41F
:10403800807200E00122B3FBF2F3626803EB5203E3
:10404800B3FBF2F39BB20025C0E60222F3E7042299
:10405800F1E70622EFE70822EDE70A22EBE70C2258
:10406800E9E71022E7E72022E5E74022E3E780229C
:10407800E1E7636AD3B1012B24D0022B24D0032BB0
:1040880024D0042B24D0052B24D0062B24D0072B96
:1040980024D0082B24D0092B24D00A2B24D00B2B76
:1040A80001D0012203E04FF4807200E00122504B5E
:1040B800B3FBF2F3626803EB5203B3FBF2F39BB278
:1040C800002583E60222F2E70422F0E70622EEE763
:1040D8000822ECE70A22EAE70C22E8E71022E6E7E2
:1040E8002022E4E74022E2E78022E0E7636AD3B1D6
:1040F800012B24D0022B24D0032B24D0042B24D032
:10410800052B24D0062B24D0072B24D0082B24D011
:10411800092B24D00A2B24D00B2B01D0012203E039
:104128004FF4807200E00122324BB3FBF2F3626875
:1041380003EB5203B3FBF2F39BB2002546E60222DF
:10414800F2E70422F0E70622EEE70822ECE70A226B
:10415800EAE70C22E8E71022E6E72022E4E740221B
:10416800E2E78022E0E74FF4807200E001224FF49A
:104178000043B3FBF2F3626803EB5203B3FBF2F3C1
:104188009BB2002522E60222F1E70422EFE706228D
:10419800EDE70822EBE70A22E9E70C22E7E710221D
:1041A800E5E72022E3E74022E1E78022DFE7012577
:1041B80000230BE601250CE001250AE0002508E0B4
:1041C800012506E0012504E0012502E0012500E0C3
:1041D80001250123A4F86A30A4F868300023E366B7
:1041E8002367284607B0BDE8F08300BF00440258A3
:1041F8000090D00300093D00836A13F0010F06D038
:104208000268536823F40033C16A0B435360836A1E
:1042180013F0020F06D00268536823F48033016B51
:104228000B435360836A13F0040F06D00268536887
:1042380023F48023416B0B435360836A13F0080F08
:1042480006D00268536823F40043816B0B43536024
:10425800836A13F0100F06D00268936823F4805322
:10426800C16B0B439360836A13F0200F06D002687A
:10427800936823F40053016C0B439360836A13F033
:10428800400F0AD00268536823F48013416C0B4333
:104298005360436CB3F5801F0BD0836A13F0800F13
:1042A80006D00268536823F40023C16C0B435360A3
:1042B80070470268536823F4C003816C0B43536052
:1042C800EBE72DE9F84305460F4616469946DDF813
:1042D80020802C68E46937EA04030CBF0124002419
:1042E800B44241D1B8F1FF3FF3D0FEF797FCA0EB01
:1042F8000900404524D8B8F1000F21D02B681A686E
:1043080012F0040FE5D0DA6912F4006FE1D04FF42F
:1043180000621A622A68136823F4D07313602A684B
:10432800936823F0010393602023C5F88030C5F813
:104338008430C5F88830002385F87C30032014E0E9
:104348002A68136823F4D07313602A68936823F0EB
:10435800010393602023C5F88030C5F8843000231A
:1043680085F87C30032000E00020BDE8F88330B5F4
:1043780083B004460023C0F88830FEF74FFC05469A
:1043880023681B6813F0080F0ED123681B6813F00D
:10439800040F17D12023C4F88030C4F884300020DB
:1043A80084F87C0003B030BD6FF07E430093034671
:1043B80000224FF400112046FFF783FF0028E4D0C5
:1043C8000320EFE76FF07E4300932B4600224FF463
:1043D80080012046FFF775FF0028DBD00320E1E7C6
:1043E80078B310B50446D0F880300BB32423C4F852
:1043F80080302268136823F0010313602046FEF71B
:104408002DFC012813D0A36ABBB92268536823F492
:10441800904353602268936823F02A0393602268CC
:10442800136843F0010313602046FFF7A0FF10BD97
:1044380080F87C30FCF734FBD8E72046FFF7DCFE39
:10444800E3E701207047000084B00346184A92E869
:10445800030004AA02E9030016496A4603C982E870
:1044680003005A6E32B90122A3F86A20A3F8682023
:1044780004B0704719688A68C2F34262886804A960
:1044880001EB507010F8081CC90010F8100C91FBD3
:10449800F0F1A3F86A1004A90A4412F8081CC9002C
:1044A80012F8102C91FBF2F2A3F86820E0E700BFA5
:1044B800FC4D0008044E000890F87C30012B18D001
:1044C800012380F87C302423C0F8803003681A6800
:1044D800196821F00101196022F000520023436697
:1044E80001680A602022C0F8802080F87C301846D5
:1044F80070470220704738B590F87C30012B1DD0EA
:104508000446012380F87C302423C0F880300368F7
:104518001D681A6822F001021A600268936823F085
:10452800604319439160FFF78FFF23681D602023C4
:10453800C4F88030002084F87C0038BD0220FCE7F5
:1045480038B590F87C30012B1DD00446012380F843
:104558007C302423C0F8803003681D681A6822F074
:1045680001021A600268936823F06063194391603E
:10457800FFF76AFF23681D602023C4F880300020FD
:1045880084F87C0038BD0220FCE7F0B58BB0002829
:1045980000F093800546046890F8BD332BB30323DD
:1045A80085F8BD33E36B13F4807F01D100232B61C1
:1045B800286800F0FDF82C4654F8107B6E460FCCA6
:1045C8000FC60FCC0FC694E8030086E803002B1D26
:1045D8000ECB384600F0A6F8044658B1022385F8F9
:1045E800BD33012420460BB0F0BD80F8BC33FCF786
:1045F800B3FAD4E70021286800F0E0F8234616E073
:10460800C3EBC30205EB8202012182F83D1082F858
:104618003C30A2F84230002182F83F105164916486
:10462800C3EBC30205EB820211650133DBB2696893
:104638008B42E5D316E0C4EBC40305EB83030022E9
:1046480083F8FD2183F8FC4183F8FF21C3F8042295
:10465800C3F80822C4EBC40305EB8303C3F8102294
:104668000134E4B2A142E6D82C4654F8107B6E46D9
:104678000FCC0FC60FCC0FC694E8030086E80300E2
:104688002B1D0ECB384600F0DFF8044660B9002336
:1046980085F83830012385F8BD336B6A012B08D0C3
:1046A800286800F099F99DE7022385F8BD330124B5
:1046B80098E7284600F004F8F2E7012492E70000A2
:1046C800034602680121C0F8FC13002083F8F403B4
:1046D800936943F000639361516D024B0B4353653B
:1046E800704700BF03000010002301330C4A9342B7
:1046F80011D80269002AF8DA036943F0010303615B
:1047080000230133064A934207D8026912F0010FC9
:10471800F7D100207047032070470320704700BF7F
:10472800400D030084B010B5044603A880E80E00CD
:10473800089B012B1DD1A36B23F48033A363E2688C
:104748001A4B1340E360E36823F44013E3600F9BC4
:10475800012B09D02046FFF7C7FF069B012B1BD072
:10476800BDE8104004B07047E36843F48013E36089
:10477800F0E7E36843F04003E3602046FFF7B4FF47
:104788000C9B23B9A36B43F48033A363E5E7A36BC6
:1047980023F48033A363E0E7A36843F00603A36030
:1047A800A36843F02003A360DAE700BFBFFFBDFFA3
:1047B800836823F0010383600020704708B5C3684D
:1047C80023F0C043C360012909D069B9C36843F025
:1047D8008043C3603220FEF727FA002008BDC36873
:1047E80043F00053C360F5E70120F7E7890141F082
:1047F8002001016100230133054A934205D802696B
:1048080012F0200FF7D1002070470320704700BF37
:10481800400D03001023036100230133054A93422E
:1048280005D8026912F0100FF7D100207047032055
:10483800704700BF400D0300D0F800381943C0F896
:10484800001800207047000084B02DE9F8430446A2
:1048580009A880E80E002546002306E003F140027F
:1048680004EB82020021516001330E2BF6D9DDF8EA
:104878004C80B8F1000F24D1D4F8043843F0020377
:10488800C4F80438A36B23F40013A363236843F02C
:1048980040032360236843F0800323600023C4F8A7
:1048A800003E04F50066D4F80038C4F800380E9BC2
:1048B800012B10D10B9B4BB900212046FFF7BCFF01
:1048C8000DE0A36B43F40013A363E7E7012120463F
:1048D800FFF7B2FF03E003212046FFF7ADFF1021E9
:1048E8002046FFF783FF814608B14FF001092046B3
:1048F800FFF790FF08B14FF001090023336173619E
:10490800F3610AE0C3B94FF00060C2F80009002261
:104918000A614FF67F328A600133099F9F4210D99E
:1049280005EB431202F51061D2F800090028E9DB13
:104938000020C2F80009EAE74FF09040C2F80009E9
:10494800E5E700230AE0BBB14FF09040C2F8000B46
:1049580000220A614FF67F328A6001339F4210D9E4
:1049680005EB431202F53061D2F8000B0028EADBB0
:104978000020C2F8000BEBE74FF00060C2F8000B14
:10498800E6E7336923F4807333610023A3616FF092
:10499800804363610C9B1BB9A36943F01003A361B7
:1049A800A2690B4B1343A3610F9B1BB1A36943F08F
:1049B8000803A361B8F1010F04D04846BDE8F843E5
:1049C80004B07047A269034B1343A361F5E700BF26
:1049D80000383C800400004008B5D0F8043843F0A3
:1049E8000203C0F804380320FEF71EF9002008BDB2
:1049F800184AD2F8883043F47003C2F88830164B4E
:104A08001A6842F001021A6000221A6118681349F4
:104A1800014019609A61DA611A629A62DA621A636D
:104A28005A639A63DA631A645A64196821F4802114
:104A380019601A660A4B1A680A4B1340B3F1005FF3
:104A480002D2094B01221A60024B4FF000629A60B1
:104A5800704700BF00ED00E0004402587FEDF6EA21
:104A68000010005C0000FFFF08810051DFF834D01F
:104A7800002103E00C4B5B58435004310B480C4BAE
:104A880042189A42F6D30B4A02E0002342F8043B4C
:104A9800094B9A42F9D3FFF7ABFF00F011F8FBF787
:104AA8009FFC704700000220304E000800000020E4
:104AB8001000002010000020E4060020FEE700009F
:104AC80070B50D4D0D4C641BA4100026A64209D1EB
:104AD8000B4D0C4C00F082F9641BA4100026A64272
:104AE80005D170BD55F8043B98470136EEE755F8F7
:104AF800043B98470136F2E7284E0008284E000884
:104B0800284E00082C4E000802440346934200D168
:104B1800704703F8011BF9E72DE9F047089D0446A3
:104B28008C46002B40F083808A42174647D9B2FA58
:104B380082F242B1C2F1200024FA00F0914097407D
:104B480040EA010C94404FEA1748230CBCFBF8F6E6
:104B58001FFA87FE08FB16C143EA014306FB0EF164
:104B6800994209D9FB1806F1FF3080F01981994262
:104B780040F21681023E3B445B1AA4B2B3FBF8F044
:104B880008FB103344EA034400FB0EFEA64509D98E
:104B98003C1900F1FF3380F00581A64540F20281FF
:104BA80002383C4440EA0640A4EB0E0400261DB13E
:104BB800D4400023C5E900433146BDE8F08702B977
:104BC800FFDEB2FA82F2002A50D1CB1B4FEA174E11
:104BD8001FFA87F80126B3FBFEFC210C0EFB1C33E1
:104BE80041EA034108FB0CF38B4207D979180CF111
:104BF800FF3002D28B4200F2E9808446C91AA3B280
:104C0800B1FBFEF00EFB101143EA014408FB00F86B
:104C1800A04507D93C1900F1FF3302D2A04500F2A4
:104C2800D9801846A4EB080440EA0C40BFE78B4241
:104C380009D9002D00F0B1800026C5E900013046F1
:104C48003146BDE8F087B3FA83F6002E4AD18B428D
:104C580002D3824200F2B880841A61EB030101207A
:104C68008C46002DA8D0C5E9004CA5E7C2F1200369
:104C780020FA03F6974001FA02F04FEA174ED9409E
:104C88003043030CB1FBFEF61FFA87F80EFB161132
:104C980043EA014306FB08F1994204FA02F409D9F0
:104CA800FB1806F1FF3C80F08D80994240F28A8023
:104CB800023E3B445B1A81B2B3FBFEF00EFB10339D
:104CC80041EA034100FB08F38B4207D9791800F148
:104CD800FF3C73D28B4271D902383944CB1A40EA6F
:104CE800064678E7C6F1200C03FA06F422FA0CF31C
:104CF8001C4320FA0CF701FA06F34FEA144E21FA86
:104D08000CF11F433B0CB1FBFEF91FFA84F80EFBB4
:104D1800191143EA014109FB08FA8A4502FA06F229
:104D280000FA06F308D9611809F1FF3048D28A451C
:104D380046D9A9F102092144A1EB0A01BFB2B1FB8E
:104D4800FEF00EFB101147EA014700FB08F8B845D2
:104D580007D9E71900F1FF312ED2B8452CD902380E
:104D6800274440EA0940A7EB0807A0FB02894F4502
:104D7800C64649461AD317D05DB1B3EB0E0267EBAE
:104D8800010707FA0CFCF2404CEA0202F740C5E9B9
:104D9800002700263146BDE8F0872E4628460BE757
:104DA8000646E9E61846FDE64345E5D2B8EB020EAD
:104DB80069EB04010138DFE70846D2E760468DE772
:104DC8008146B9E7664675E730464AE7ACF1020C1A
:104DD800394413E702383C4424E700BFF8B500BF64
:104DE800F8BC08BC9E467047F8B500BFF8BC08BCC4
:044DF8009E4670471C
:104DFC00010101030701000008040204080101017C
:104E0C000000000000000000010203040102030482
:044E1C000607080974
:084E200000FDFF7F010000000E
:044E2800F10200088B
:044E2C00CD020008AB
:104E300001000000100000000090D0030090D0039B
:0400000508004A7530
:00000001FF
